:100000000CC024C023C022C021C020C01FC01EC0FD
:1000100041C01CC08B9AA4AEB80011241FBECFE90A
:10002000CDBF10E0A0E6B0E0E2E1F3E002C0059051
:100030000D92AA36B107D9F720E0AAE6B0E001C0D8
:100040001D92AD38B207E1F755D061C1D9CF28EE86
:1000500033E0019720F0F9013197F1F7FACF0895D5
:1000600020916B0091E0920F9F7190936B009EBB6B
:100070008DBB84E28CBB86E28CBBE199FECF2EBBAC
:1000800084E18CBB86E18CBB0895369A3699FECF0D
:1000900085B108951F920F920FB60F9211242F93DE
:1000A0003F934F935F936F937F938F939F93AF9300
:1000B000BF93EF93FF9380916C008F3F19F08F5F98
:1000C00080936C0080916C00823019F480916A00FA
:1000D000C7DFFF91EF91BF91AF919F918F917F917A
:1000E0006F915F914F913F912F910F900FBE0F90A5
:1000F0001F90189582E087BB83E28FBD81E083BFAC
:1001000081E687B9A29A86EC86B9479A85B7877E39
:1001100085BF40E250E060E070E08DE690E0E9D01D
:1001200080916B00E82FF0E0E359FF4F90819F3FF3
:1001300021F4803248F48F5FF5CF80936B008032DA
:1001400018F490936A0002C010926B0080916A00CC
:1001500086FF10C080916A008F7380936A0080913F
:100160006A008F5F80936A0080916A008A3010F085
:1001700010926A0080916A00806472DFF894A895FA
:1001800081B5886181BD85E481BD7894E0916A0084
:10019000F0E0E05AFF4F808189BD77DFC0E017E2D1
:1001A000DFEF80916A00853040F485B7806285BFBB
:1001B000889585B78F7D85BF58C080916A0088304B
:1001C000D0F404E0E0916A00F0E0E35AFF4F808150
:1001D00089BD85E090E03BDFE0916A00F0E0E05A05
:1001E000FF4F808189BD81E490E031DF015051F7FC
:1001F00080ED92E039C080916A00893080F4D9BDE9
:1002000081E090E024DF19BC89EF90E020DFD9BDC8
:1002100081E090E01CDF19BC8DEE92E025C080915A
:100220006A008A3010F519BC88EE93E010DF2DDFEC
:100230002CDFE4E1F0E000E09491981708F40F5F00
:10024000319690E0E931F907B9F7F12CF01651F049
:1002500019BD84E690E0FBDE19BC80E991E0F7DE91
:10026000F394F4CF88EE93E0F2DE349B9ACF0DDF67
:1002700090E020916A00222319F02BE730E002C0C1
:1002800021E730E0821793078CF5CF5FC33078F118
:1002900080916A00882389F080916A00883021F07B
:1002A00080916A00853019F410926A001CC0809118
:1002B0006A00815080936A0016C019BCF894A89512
:1002C00084B7877F84BF81B5886181BD11BC789474
:1002D00085B7877E806185BF85B7806285BF889539
:1002E00085B78F7D85BF88EE93E0B1DEC0E0369A9A
:1002F00058CFA82F862FE82FE199FECF05C0EEBB7F
:10030000E09AE3950DB20D924150C8F70895F89424
:02031000FFCF1D
:0A031200060E2778FF060E27FF27CE
:00000001FF
