:100000006DC1000088C100000C94A60E84C10000E0
:1000100082C100000C94970E7EC100007CC10000DC
:100020007AC1000078C1000076C1000074C10000F0
:1000300072C1000070C100000C94590E6CC1000028
:100040006AC1000068C1000066C1000064C1000010
:1000500062C1000060C100005EC100005CC1000020
:100060005AC1000058C1000056C1000054C1000030
:100070003230323230353330303331340001050420
:100080001410111500000000000000000000000026
:100090000000000000000000000000000000000060
:1000A0000000000000000000000000000000000050
:1000B0000000000000000000000000000000000040
:1000C0000000000000000000000000000000000030
:1000D0000000000000000000000000000000000020
:1000E0000000000000000000000000000000000010
:1000F0000000000000000000000000000000000000
:1001000000000000000000000000000000000000EF
:1001100000000000000000000000000000000000DF
:1001200000000000000000000000000000000000CF
:1001300000000000000000000000000000000000BF
:1001400000000000000000000000000000000000AF
:10015000000000000000000000000000000000009F
:10016000000000000000000000000000000000008F
:10017000000000000000000000000000000000007F
:10018000000000000000000000000000000000006F
:10019000000000000000000000000000000000005F
:1001A0000000000000000000000000000000FF034D
:1001B0000100010001000100020002000200020033
:1001C000030003000300040004000500050006000E
:1001D000060007000800080009000A000B000C00D8
:1001E0000D000E000F001000110012001400150089
:1001F000170018001A001B001D001F00210023001B
:100200002500270029002B002D003000320035008A
:1002100038003A003D004000430046004A004D00CF
:100220005000540058005B005F00630067006C00E2
:100230007000740079007D00820087008C009100BE
:1002400096009C00A100A700AD00B200B800BF005E
:10025000C500CB00D200D900DF00E600EE00F500BB
:10026000FC0004010C0113011B0124012C013401C9
:100270003D0146014F01580161016B0174017E018E
:10028000880192019D01A701B201BD01C801D301FE
:10029000DE01EA01F60102020E021A02270233020F
:1002A00040024D025B026802760284029202A002C2
:1002B000AF02BE02CD02DC02EB02FB020A031A030C
:1002C0002B033B034C035D036E037F039103A303E6
:1002D000B503C703D903EC03FF03000011241FBEBD
:1002E000CFEFD4E0DEBFCDBF11E0A0E0B1E0E0EEA3
:1002F000F6E202C005900D92A634B107D9F721E0CD
:10030000A6E4B1E001C01D92A83EB207E1F70E9449
:10031000B50E0C946E1374CE482F9B01E5EBF1E003
:1003200080E090E05081552331F001963396803182
:100330009105C1F70AC063E070E00E941911FC0149
:10034000EB54FE4F40833283218308950F931F9314
:10035000CF93DF93D091B501DD2351F10091B60128
:100360001091B701C0919201C150C7FD0DC0EC2F93
:10037000EE0FFF0BED56FE4F0190F081E02DB8011E
:100380008D2F09958111F0CFE5EBF1E0838180831A
:100390008481958192838183339681E0E23EF807E0
:1003A000A9F71092E2011092E4011092E301D2CF7A
:1003B000DF91CF911F910F910895BC018091E701CA
:1003C000ABCF1092E7011092E6011092E50181E0B7
:1003D00080937301089528E13FE1815020F0F901F5
:1003E0003197F1F7FACF08958FB182FB882780F912
:1003F00091E0892780938B010895E0910601F091A7
:1004000007013196FB70F460F0930701E093060159
:10041000809187018B5A80938701E49180918701B5
:100420008E0F08950F931F93CF93DF9300D01F92E9
:10043000CDB7DEB72091190130911A0140911B010F
:1004400029833A834B83FE01319640E050E090E0EF
:1004500061E070E0B1919A01220F331F8C0102C05C
:10046000159507952A95E2F79801237061F02130E0
:10047000D1F4A0B39B0101C0220FBA95EAF7322F45
:1004800030953A2318C0A0B39B0101C0220FBA9542
:10049000EAF720953A2F322330BB32B3322332BBF6
:1004A00031B323230EC0A0B39B0101C0220FBA9524
:1004B000EAF73A2F322B30BB32B3322B32BB31B397
:1004C000232B21BB4F5F5F4F4330510519F60F902F
:1004D0000F900F90DF91CF911F910F910895CF93BF
:1004E000DF9300D000D000D0CDB7DEB7662309F18E
:1004F000823019F497E9961B692F20916F0196E0DD
:10050000ECE1F1E0DE01119601900D929A95E1F790
:10051000E82FF0E03197EE0FFF1F81E090E08C0FA5
:100520009D1FE80FF91F0190F081E02DE20FF11DF2
:10053000608326960FB6F894DEBF0FBECDBFDF9165
:10054000CF910895BF92CF92DF92EF92FF920F93D7
:100550001F93CF93DF93EC0140916F01842F90E0C4
:10056000FC01E05FFE4F208120931301FC01E25F5C
:10057000FE4F80818093120130910D01622F70E057
:10058000442349F0313039F49B01280F311DC90152
:100590009595879538C0C617D707A4F1682F70E0E6
:1005A0006C177D0784F1411102C08C2F2CC0821B77
:1005B000032F10E001501109E82EF12CC701B801FA
:1005C0000E944A1160936D016695E62FF0E0822F3C
:1005D000C12CD12CB12CB316B1F0C601B8010E94C8
:1005E0003611822F860FCE0CDF1CAE01481B51093D
:1005F00057FF03C0519541955109E417F5071CF4C5
:10060000B394E9CF822FDF91CF911F910F91FF908B
:10061000EF90DF90CF90BF9008950F931F93CF93EB
:10062000E82F8091A8019FEF980F9C3110F480E093
:1006300077C0CE2FC295CF70EF7090918A01911143
:1006400003C0C33008F0C2E0E73008F441C0E7302F
:10065000A9F400914B0110E00F5F1F4FCEDE65E063
:100660000E942A119801290F311DC90166E070E02E
:100670000E944A1180934B01FC0135C0E830B1F46F
:1006800080918A01882311F08FE001C083E0682304
:1006900051F480914B0190E0019666E070E00E9479
:1006A0004A1180934B01E0914B0112C090918A0155
:1006B000992381F08D31D8F090E0E92FF0E0EB5CE8
:1006C000FE4F2081821710F09E5FF7CF3197E081B7
:1006D000F0E009C0862F869563E00E942A11E92F79
:1006E000F0E0EE0FFF1FE358FF4FE49101C0E0E0A0
:1006F000C33071F480914A0190E0019663E170E0AB
:100700000E94361180934A01DC01AE5DBE4FCC9150
:10071000CC2321F0C13019F0EE0F01C0E0E08E2FA4
:10072000CF911F910F917ECE81E00895611160936A
:1007300017010895662389F0813061F48091A60144
:100740009091A501891B681B6093A50182E08093AD
:10075000180103C0635E609316018091160187340F
:1007600018F086E480931601089560936801089557
:100770000F931F93CF93DF9380916F018093740148
:10078000809110018093750180910E018093760114
:1007900080910C0180937701809111018093780101
:1007A00080910F018093790180910D0180937A01EE
:1007B00080916E0180937B018091140180937C0174
:1007C0008091710180937D018091700180937E0101
:1007D00080910901809380018091160180938101AD
:1007E0008091A501809382018091170180938301FC
:1007F00080910B018093840180910A01809385018F
:10080000809168018093860182E0E5DDF89404E739
:1008100011E0C1E8D0E0F80161918F01CE010E94A2
:100820005C132196C439D105B1F765EA80E890E000
:100830000E945C137894DF91CF911F910F910895DE
:10084000CF93C82F809389018093880180918A017A
:10085000811101C0E7DDC1110AC010926B00109236
:100860006A0010926D0010926C008F981CC0C150ED
:10087000C53910F48F9A01C08F988C2F90E0880FA3
:10088000991FFC01E055FE4F2591349130936B0088
:1008900020936A00FC01EC57FF4F8591949190934F
:1008A0006D0080936C00CF91089580937201C8CF42
:1008B000CF93C091890189E18C0F873908F080E0DE
:1008C000BFDF82E088DD8C2FCF91BACFCF93C0916C
:1008D000890180E0B5DF83E07EDD8C2FCF91B0CF42
:1008E000813019F4109271010895823019F46093E7
:1008F00070010895833019F460936E010895843077
:1009000011F4609314010895883039F410926C0149
:1009100010926A011092690140C0813B59F48091A4
:100920006C0181508330D8F583E080936C01809313
:100930006B0135C0853BB1F4CB016EE370E00E94E2
:100940003611892B51F580916C018A3F30F58B5F10
:1009500080936C0180936B0110926A01109269017F
:10096000A7DF1BC08130D9F48091690190916A01A1
:10097000019688382EE0920728F490936A018093BC
:1009800069010BC010926A011092690180916C019B
:10099000882319F0815080936C0180E0089581E0F4
:1009A0000895FF920F931F93CF93DF938C01EB0178
:1009B000F42E8091A3019091A401892B31F0E09154
:1009C000A301F091A40189E009951093A40100937B
:1009D000A301012B39F0E091A301F091A401BE0124
:1009E0008F2D099581E080937301DF91CF911F9145
:1009F0000F91FF900895CF93DF93E0919201EE2342
:100A000059F0E150E0939201F0E0EE0FFF1FED5638
:100A1000FE4FC081D18102C0C0E0D0E0E0919201E0
:100A2000EE2341F0F0E0EE0FFF1FEF56FE4F808106
:100A3000918102C080E090E04AE060E070E0B1DFC8
:100A4000CE01DF91CF910895883039F4109265017D
:100A500010924C0180E0F4DE35C08130F1F49091C9
:100A60004C01911107C06032710560F180934C0117
:100A7000A8DC28C0913079F46B3B710528F082E046
:100A800080934C0180E01DC061157105D9F0862F5F
:100A900082708F5F16C0AFDF15C0813811F0813EC4
:100AA00089F491E090934C01813E21F4809165019D
:100AB000865F03C0809165018F5F8093650181DC53
:100AC0008FE3B0DC80E008959C0190919201983012
:100AD00088F4E92FF0E0EE0FFF1FED56FE4F318353
:100AE00020839F5F9093920148E0C9015ADF809173
:100AF000920108958FEF08950F931F93CF93DF9383
:100B0000EC018B0178DFB801CE01DF91CF911F910D
:100B10000F91DACF813C29F460E070E082EC95E03F
:100B200006C0823C39F460E070E08BEC96E0E4DFD4
:100B300080E0089581E00895843011F58091A3014B
:100B40009091A4012CE08C3C920729F469E170E0BB
:100B50008FEF96E013C08F5F964061F4909189010A
:100B6000923040F0892F869596959695890F9DDE57
:100B700080E0089560E070E082EC95E0BDDFF8CFA2
:100B800081E00895CF93DF93EB01883079F480E022
:100B900057DE60E080910B0140DD10926C01CD2B9F
:100BA00019F481E080938A0180E0C9C0813031F47A
:100BB00069317105C8F380938A01B7C0833009F5A4
:100BC00020917101222361F08091700190E062EC2C
:100BD00071E00E941911C817D90710F02093150170
:100BE0006C2F80910B0119DD809168018823E1F25F
:100BF00090E062EC71E00E9419118C179D07A0F63D
:100C000047C0813B91F481E090E09CDC19DE80914B
:100C10006E018111C9CF80916F01811103C0689766
:100C200008F4C2CF61E070E023C0813ED9F381387F
:100C300021F48091150190E00EC0813C21F4609177
:100C4000890170E015C0823B51F48091140181113B
:100C500004C086E990E076DC05C086E903C0823EE8
:100C600019F480E0EDDDA0CF823C31F466E970E05C
:100C70008FEF96E041DF98CF833999F3833C29F4D5
:100C800060E070E08BEC96E0F5CF843C31F410DE50
:100C900060E070E084E999E0EDCF8D3B41F4F89499
:100CA00088ED8FBD88E880BF7894A895FFCF8F3CF2
:100CB00029F460E070E084E993E0DCCF833B29F421
:100CC00060E070E08CEC9CE0D5CF853C31F4F0DD49
:100CD00060E070E081E19EE0CDCF873C91F490919F
:100CE0000B01892F82958F708F5F83708295807F33
:100CF0009F70892B80930B0160E08FDC39DDD8DD9C
:100D000053CF873BB9F4CB018F739927892B69F4B3
:100D100090910B01892F8F708F5F292F207F6BE0BF
:100D20000E942A11922B90930B016C2F80910B0142
:100D300074DC3ACF873E11F41BDD36CF81E0DF91C2
:100D4000CF910895813C29F460E070E082EC95E059
:100D500006C0823C31F460E070E08AE895E0CCDEC9
:100D600016C0813B49F4CB016EE370E00E9436115E
:100D7000892B69F49DDD0BC0813E59F4CB016EE3F4
:100D800070E00E9436116F5F60930901F1DC80E032
:100D9000089581E00895813C29F460E070E082ECE0
:100DA00095E006C0823C31F460E070E085EE96E0AC
:100DB000A3DE07C0873B39F460E070E088E899E083
:100DC00083DE80E0089581E00895813C29F460E0AD
:100DD00070E082EC95E006C0823C31F460E070E0A7
:100DE00082EA96E089DE07C0873B39F460E070E074
:100DF0008CE899E069DE80E0089581E00895AF9283
:100E0000BF92CF92DF92EF92FF920F931F93CF93F7
:100E1000DF93182FEB01F0901301E0901201B090D6
:100E20006F01BB2019F0D0906D0102C0DD24D39476
:100E3000C0901401CC2049F081E0C81621F08091C7
:100E400015018E1510F006E901C00E2DA0906C0161
:100E5000BE01812F59DD60916C01662339F0A1102C
:100E60000CC0809189018093500107C0AA2029F00D
:100E700060E070E082EC95E0D5C1812F8D7F8830F5
:100E8000B9F4109267011A3019F4C0911501D0E03D
:100E90008F2D90E08C179D0730F4F12CCE15DF05D7
:100EA00010F4C0931501CE014DDBFFDC81E07BC067
:100EB000113CF1F2123C71F480918901801710F419
:100EC000802F02C080911501F0DC80918901809310
:100ED0005001C1C1143C39F480E0B2DC60E070E044
:100EE00084E999E09FC18FE4810F823008F054C0FB
:100EF000BB2041F0CE0168E170E00E943611892BE1
:100F000031F0A9C160910C0170E0CE01F6CF2091C3
:100F10008901209761F4123B11F48FEF05C02E1563
:100F2000E0F7F21608F181E0809305011DC0E09121
:100F30000C01F0E0CF0166E371E00E9419118C17FB
:100F40009D0710F42E1548F7CF016CE672E00E9461
:100F500019118C179D0740F4F21630F0A9DC60E0FF
:100F600070E084E999E0C8DDD091890180910501A4
:100F70006D2D70E0082E000C990B0E9419118D0F39
:100F8000911DE0DAC82F80931501D81719F0E812E7
:100F900001C09CDC8C2F98CF8FE1810F823030F420
:100FA0008091050181958093050155C1113009F0AB
:100FB000D3C0A99711F4109305016623A1F0809185
:100FC000500170E06150710990E00E941911609128
:100FD0006B0170E00E944A11611101C061E06093F1
:100FE0008801609372018091880190918901282F76
:100FF00030E0291B310960914E0170914F016F5F04
:101000007F4F70934F0160934E012115310509F414
:1010100022C137FF05C0933830F040E450E005C0EE
:1010200040E052E002C040E051E05695479537FF5E
:1010300002C02F5F3F4F3595279521153105A9F740
:101040004617570708F007C1891710F48FEF03C040
:10105000981710F481E0890F9FEF980F953910F4DD
:101060008F9A01C08F98292F30E0220F331FA901DA
:1010700040555E4FFA0165917491E09189019E1788
:1010800050F4E0916A00F0916B00EF2B21F46F3F78
:1010900093E07907D9F0E0916A00F0916B00E617D0
:1010A000F70738F460916A0070916B006F5F7F4FB3
:1010B0000DC0E0916A00F0916B006E177F0750F44D
:1010C00060916A0070916B006150710970936B00C0
:1010D00060936A002C573F4FF90165917491E0913C
:1010E0006C00F0916D00E617F70738F460916C0022
:1010F00070916D006F5F7F4F0DC0E0916C00F091BB
:101100006D006E177F0750F460916C0070916D0058
:101110006150710970936D0060936C0060916A007A
:1011200070916B00FA01459154916417750779F439
:1011300040916C0050916D00F90125913491421756
:10114000530729F4C09188017BDBC093880110927A
:101150004F0110924E017FC01530A9F48091890192
:10116000823408F478C090E08C1B9D0B282F8134CA
:1011700091052CF08739910518F026E901C021E48A
:101180002093880168C01630B1F490918901809154
:101190007201981708F05FC0C90FD11D90E08C173D
:1011A0009D0734F0C134D10524F4C1E4D0E001C07E
:1011B000EC018C2F0EC0173079F49091880180914A
:1011C0008901891710F48F5F04C0981708F043C095
:1011D0008150809388013FC0133C71F481E0B110CD
:1011E00080E080936F01C4DA71DB8091890190E027
:1011F000A9D98093150168CE133B31F4CD2B59F555
:10120000C11006E9802F04C0133E21F4809115011E
:101210004CDB21C0153C41F480E012DB60E070E063
:1012200081E19EE069DC17C0173B29F460E070E0C3
:1012300080E899E00FC01A3C39F4809189018093CD
:10124000710196DA35DB07C01A3B39F460E070E0D3
:1012500084E899E039DC80E001C081E0DF91CF9142
:101260001F910F91FF90EF90DF90CF90BF90AF90C4
:101270000895883061F410924D0180E0E1DA8091A8
:101280008B0181113BC081E080934D0127C0982FD5
:10129000907F903BD9F420914D01421790F0CB0103
:1012A0006DE570E0E3D7029739F42F5F20934D018D
:1012B000421720F188E308C080E0C2DA80E2B2D8A9
:1012C0001DC080E0AFD880E0BBDA18C0903E61F46A
:1012D00080914D01882389F0481778F060E070E034
:1012E00084E295E0F1DB0AC08A3041F46091650147
:1012F00080914D01F90109953BDA7DDB80E008958D
:101300002FE632E043E0B5CF20E734E044E0B1CF50
:1013100026E933E041E0ADCF2AE933E042E0A9CF4E
:1013200025EB33E041E0A5CF0F931F93CF93C82F58
:101330008B01873BA9F480E083DAC8018F7399277A
:10134000892B09F088C090910A01892F8F708F5FD7
:10135000292F207F6BE07ED7922B90930A017BC0D0
:1013600080798039D9F490911001209111018C2F4E
:101370008F70823049F480917101811108C0892FEA
:10138000921728F4822F03C0822F291710F4891393
:1013900003C08AE247D80FC053DA0DC0803821F469
:1013A00080E040D880E04CDAC83029F460E08091D9
:1013B0000A0133D95AC0C13039F40931110508F492
:1013C00052C0C0938A0147C0C33009F444C0C33C33
:1013D00031F46EDA60E070E082EC95E01EC0C43C4F
:1013E00071F4C0917101CC2319F06C2F70E013C01F
:1013F0006091150170E08FEF96E07EDB37C0C43B53
:1014000031F464DA1092E70161E070E004C0C53C99
:1014100031F466E970E08FEF96E06EDB24C0CA3BE2
:1014200031F460E070E080E999E04EDB1CC0C73C1D
:10143000B9F490910A01892F82958F708F5F837024
:101440008295807F9F70892B80930A0160E0E5D8A8
:101450008FD92EDA08C0602F80910A01DED803C030
:10146000C73E19F485D9C0E001C0C1E08C2FCF91EF
:101470001F910F91089585E084B91092B2011092E6
:10148000B30183B1886483B90895F5DFE1E6F0E044
:10149000808181608083139A86EE83B908958F924C
:1014A0009F92AF92BF92FF920F931F93CF93DF93C0
:1014B0001092B40120B191B1309187012295269507
:1014C00026952370892F90E0880F991F880F991F08
:1014D000820F911D830F809387018091A90188233A
:1014E00009F42BC11092A9018091B20190918A0157
:1014F000992319F01F981092B20181113DC080917B
:101500001801882349F08091AE019091AF0190932A
:10151000AB018093AA0104C08091AA019091AB0114
:101520004096807E969587956EE872E09FD6809172
:1015300017018750680F6093A80180916401882388
:1015400011F0815008C06D3140F460E070E084E03B
:101550000E948C0185E08093640180918A01811151
:10156000E3C08BE084B981E08093B2011092B301B3
:1015700083B1886483B9D8C0813009F0D5C0809127
:101580001801811168C0C091AC01D091AD01609685
:1015900045E0D695C7954A95E1F7F090A501BE01C3
:1015A000769567956D5C710980E090E084D728E4BA
:1015B00031EE42E850E4E6D620E030E0A9017ED6E4
:1015C0004B015C016F2D0F2C000C770B880B990BD6
:1015D00074D79B01AC01C501B40170D63BD77093A1
:1015E000A7016093A60180915301E82FF0E0EE0F70
:1015F000FF1FEC5AFE4F208131818E01021B130B1D
:10160000D183C0838F5F877080935301C801880F97
:10161000991F880F991FC80FD91F6091160170E09C
:101620006F197109F7FC7395072E000C880B990B45
:1016300044D728E431EE42E850E4CBD720E030E054
:101640004DE453E43BD60BD7660F771FCE01861BC4
:10165000970B23E01CC08091B0019091B101909351
:10166000AD018093AC01409635E0969587953A950B
:10167000E1F7E4E5F1E08193919321E0E436F207AC
:10168000D1F781CF009709F00196215029F0181663
:101690001906C4F70197F9CF18161906E4F417FDD7
:1016A00039C02091520112160CF1880F991FBC010C
:1016B0006350710977FF02C06F5F7F4F7595679523
:1016C0001616170614F061E070E088E1861B80931F
:1016D000520185E026C08C3F2FEF9207DCF417FF04
:1016E00019C02091520127FF05C02450281B2093C8
:1016F000520119C024EE281B209352012091A80109
:101700002F3188F06CEF7FEF681B790B759567952B
:1017100086E007C08091A8018E3128F060E070E07B
:1017200087E00E948C01A7DE80911801882329F0B0
:1017300080911801815080931801DF91CF911F9102
:101740000F91FF90BF90AF909F908F9008950F934F
:101750001F93CF9310928D018091E5019091E60146
:101760009C012F5F3F4F88279078822B932B90937B
:10177000E6018093E501C0918B010E94F401C81736
:1017800031F110928A0180938B019091E7018823B7
:1017900059F0892F80699F709F3009F08F5F809387
:1017A000E70180E090E00DC0892F8F7E95FD02C09B
:1017B000806801C0806C8093E7018091E501909181
:1017C000E6010E94DD011092E6011092E501009110
:1017D000E5011091E60180918A01882379F0B80132
:1017E00083E00E948C010E94A6010F731127012B38
:1017F00009F046C01092510148DE32C0C091E701A5
:101800008C2F807F803B19F460E070E001C0B8014C
:1018100081E00E948C01C4FF13C0C5FF02C0C80153
:101820000CC008311105E0F01092E6011092E501BC
:10183000C062C093E70180E090E00E94DD0110C02B
:10184000CC2371F0C5FD0AC00231110548F0C06417
:10185000C093E70180E090E00E94DD010E94E10179
:1018600080915101811106C083B1886483B981E000
:101870008093A901809151018F5F8F7180935101F5
:10188000CF911F910F9108958091B401811107DECE
:1018900080918D0181115BCF08950F931F93CF939A
:1018A000DF93EC0108E017E0209761F0809173016D
:1018B0002197811109C0C8010197F1F7E5DF0E9466
:1018C000A601F2CF81E001C080E0DF91CF911F91AE
:1018D0000F910895CF93C82F8823A9F088E30E9421
:1018E000120286EA90E0D9DF81E00E9412028AEFBC
:1018F00090E0D3DF80E00E941202C15079F78AE9BC
:1019000092E0CF91CACF88E30E94120288E090E073
:10191000C4DF81E00E9412028AEF90E0BEDF80E027
:101920000E941202ECCFCF93DF9364E693D4282F6A
:10193000892F6AE08FD4EC01222341F0822FCADF85
:101940008C2FC8DF8D2FDF91CF91C4CFC111F8CF7D
:10195000F9CFCF93DF93C82FD62FCC23D1F080912E
:1019600015010E94200484E690E097DFDD2319F042
:1019700088EC90E092DF80E00E94200482E00E94E8
:10198000120284E690E089DF80E00E941202C150DA
:10199000E4CFDF91CF910895DF92EF92FF920F9302
:1019A0001F93CF93DF93C82F8B01D091080181E063
:1019B00080936701D13009F0DFC0F0906C018C2F6B
:1019C0000E948404FF2051F080916C01811106C0B7
:1019D00060E070E082EC95E08FD8CEC0C83021F492
:1019E00081E080930301CAC0C23C19F410926C01DB
:1019F000D4C0C13BC1F490910201012B49F49E3641
:101A000010F08FEF03C0923018F481E0809303014F
:101A100080910301890F11F481E0F4C08F3608F43E
:101A2000F1C08EE6EFC0C13E31F480910301819593
:101A300080930301BEC0C23B61F481E08093030147
:101A400080910201823008F499C081508093020194
:101A500095C0C13009F0DAC00932110511F4C09304
:101A60000301D09049018D2D880FD7FC809590E01F
:101A700067E070E0DED3292FE09048018E2D880FBB
:101A8000E7FC8095D09101016D2F70E090E0D1D3FB
:101A9000290FF09047018F2D880FF7FC8095C0919A
:101AA00000016C2F70E090E0C4D3920F60910201AE
:101AB00070E0690F711D80916C01813091F480910B
:101AC000690190916A0125E0969587952A95E1F73D
:101AD00024E730E0A901481B590BCA01AAD3B90178
:101AE000C5D3862F0E94200400FD06C00E94FD0180
:101AF0008170D80ED092490180914601E80EE092A3
:101B000048010E94FD0165E2A5D3F90EF09247015C
:101B10000E94FD018F7331F40E94FD016DE09AD3A4
:101B200090934601DD2339F00E94FD018F7319F473
:101B3000D150D09301010E94FD01811108C00E9483
:101B4000FD016BE087D39093010110924801C330EF
:101B500038F00E94FD018F7119F4C150C09300014B
:101B60000E94FD018F7709F041C00E94FD0166E0EF
:101B700071D3909300013AC0C83021F481E0809382
:101B8000040142C0C13C39F460E070E082EC95E0B1
:101B90000E947C0539C0C23C41F48D2F90E0019633
:101BA00081709927809308010EC0C13B69F1C13E45
:101BB00031F48091040181958093040104C0C23BFB
:101BC000E9F2C23E19F40E94B8031EC0C53C51F4AC
:101BD00060E070E081E19EE00E947C0580E00E9470
:101BE000200412C0C13011F081E013C00932110588
:101BF00019F481E08093040180918701080F00931C
:101C0000870102C08093020180E003C0C13CC9F695
:101C1000BBCFDF91CF911F910F91FF90EF90DF909D
:101C200008950F931F93CF93DF93D82F8B018830A4
:101C300031F480916701813011F488E0ADDE8D2FA1
:101C40008079803961F481E080936601C0916701F9
:101C5000C1110CC0809115010E94200424C080385D
:101C600039F41092660180E00E942004C0E01BC09D
:101C7000D130C1F4C0916601CC2351F0809167014D
:101C80008130A1F7B801DF91CF911F910F9184CEE0
:101C90000733114058F3D0938A0160E080E00E943E
:101CA0000D0301C0C1E08C2FDF91CF911F910F91E7
:101CB00008951F920F920FB60F9211242F933F9306
:101CC0008F939F93AF93BF93EF93FF938091B30153
:101CD0008823E9F0E091B20120B131B1F0E0EE0FDC
:101CE000FF1FDF01A255BE4F2D933C93E655FE4FDB
:101CF000808191818217930708F40196281739078C
:101D000008F401979183808381E08093B40181E09E
:101D10008093B301FF91EF91BF91AF919F918F910C
:101D20003F912F910F900FBE0F901F9018951F920B
:101D30000F920FB60F9211248F9381E080938D0143
:101D40008F910F900FBE0F901F9018951F920F92BA
:101D50000FB60F9211248F9381E080938C018F91A5
:101D60000F900FBE0F901F901895F89485B7877F3E
:101D700085BF88ED90E00FB6F894A8958FBD90B719
:101D8000977F90BF0FBE88E08CB988EF80BB83EA55
:101D90008093720081E08093710084E082BB87BDF4
:101DA0008CB788608CBFA89580E480BF6EDB789488
:101DB00081E00E94EB0160E070E08CE995E00E9418
:101DC000640510927301C3E080E30E94120285E073
:101DD0000E94EB0180E00E9412028AE00E94EB0167
:101DE00080E30E94120285E00E94EB0180E00E94E5
:101DF000120284E10E94EB0183E00E94120285E05E
:101E00000E94EB0180E00E9412028AE00E94EB0136
:101E100083E00E94120285E00E94EB0180E00E94B4
:101E200012028CE30E94EB01C15071F684E60E941D
:101E3000EB010E94F40181110BC082E00E94EB01D2
:101E4000F89480E890E030D4853A69F1789481C0C4
:101E5000C0E08C2F0E94200483E190E01EDD8C2FD7
:101E600086950E94200483E190E017DD0E94F40132
:101E7000882379F0CF5FC03461F70E94B803C6E9C8
:101E80008C2F0E94200484E090E007DDC150C1F750
:101E9000D4CFCC2391F28C2F0E9420048DE090E0CF
:101EA000FCDCC150F6CF04E711E0C1E8D0E0CE0180
:101EB000FBD3F80181938F012196C439D105B9F77D
:101EC00078948091740180936F0180917501809363
:101ED00010018091760180930E01809177018093AB
:101EE0000C01809178018093110180917901809398
:101EF0000F0180917A0180930D0180917B01809385
:101F00006E0180917C018093140180917D0180930A
:101F1000710180917E018093700180918001809396
:101F20000901809181018093160180918201809343
:101F3000A501809183018093170180918401809392
:101F40000B018091850180930A0180918601809325
:101F500068018091710181118093150161E070E049
:101F600082EC95E00E94640543E4442E52E0552E35
:101F700060E4862E9924939477E0772ECC24C39442
:101F8000D12CF5E06F2EA2ECAA2EA5E0BA2E0E946D
:101F9000A6018091900190919101009751F060917C
:101FA0008E0170918F010E947C0510929101109218
:101FB000900180918A01882309F440C080E00E944A
:101FC0002004A89540BE1F980E94F4018111FCCF07
:101FD0000E94E1018CB788608CBF1092B40110920E
:101FE0008D0110928C0180918A018823F9F086B7C7
:101FF0008F79806486BF86B7806186BF889586B7F3
:102000008F7E86BF80918C01811110928A01809110
:10201000B401882329F0909218019092A9013FDA27
:1020200080918D018823F9F292DBDDCF5092180167
:102030008CB7877F8CBF29DAA89580BE25DC1092EB
:1020400073018091A3019091A401F3E084399F076B
:10205000B9F4C0E7D0E0FE01849180533BDC8CE210
:1020600091E01BDC2196F0E0CC37DF07A1F7B092BE
:102070009101A092900110928F0110928E0187CF52
:102080002CE08C3C920779F03EE08131930709F017
:1020900073C080916701813009F0C0C080916601F2
:1020A000882309F4BBC080910801811170CF0E9480
:1020B000FD018F73E82EF12C0E94FD01672DCAD01F
:1020C000E60102C0CC0FDD1F9A95E2F70E94FD01E8
:1020D000662DC0D0F60102C0EE0FFF1F9A95E2F701
:1020E000CE0FDF1F0E94FD0190E0BE01D3D0C80FCC
:1020F000D91FC739D10514F0C6E9D0E08C2F0E9452
:102100002004C701CADB8E0133E0159507953A9587
:10211000E1F7011101C001E010E0C701BEDBC01B07
:10212000D10BD7FF02C0C0E0D0E08C2F0E9420046A
:102130000E94FD01837039F4C701AFDBCE01959594
:1021400087950E942004C230D1053CF70E94FD0112
:102150006DE080D0E60102C0CC0FDD1F9A95E2F75A
:102160000E94FD0190E0BE0181D0C80FD91F80E020
:102170000E942004CE0150C0F6E08B3C9F0721F462
:102180008091A801D0DB03CF26E0853E920731F491
:102190008091A601C8DB88EE93E03EC036E0823A2B
:1021A0009307E9F480918B018111F1CE85E90E94BA
:1021B00020048AE090E071DB80E00E94200482E24B
:1021C0000E9412028091090190E068EE73E031D024
:1021D0008456910962DB80E00E941202D8CE8A58B0
:1021E0009540E1F461E081E0B4DB60E081E0B1DBE7
:1021F00061E081E0AEDB60E081E0ABDB88EE93E0A4
:102200004CDB61E082E0A5DB60E081E0A2DB61E025
:1022100081E09FDB80ED97E040DBB9CE86B78F7918
:1022200086BF86B7806186BF889586B78F7E86BF5A
:10223000AECE0024552704C0080E591F880F991FE1
:10224000009729F076956795B8F37105B9F7802D59
:10225000952F0895991B79E004C0991F961708F0EF
:10226000961B881F7A95C9F780950895AA1BBB1BFA
:1022700051E107C0AA1FBB1FA617B70710F0A61B86
:10228000B70B881F991F5A95A9F780959095BC01A7
:10229000CD01089597FB072E16F4009406D077FD24
:1022A00008D0E4DF07FC05D03EF4909581959F4F60
:1022B0000895709561957F4F08955058BB27AA27C0
:1022C0000ED04DC13ED130F043D120F031F49F3FCC
:1022D00011F41EF433C10EF4E095E7FB29C1E92F98
:1022E0004FD180F3BA17620773078407950718F078
:1022F00071F49EF567C10EF4E0950B2EBA2FA02D58
:102300000B01B90190010C01CA01A0011124FF27A2
:10231000591B99F0593F50F4503E68F11A16F0409D
:10232000A22F232F342F4427585FF3CF469537959C
:102330002795A795F0405395C9F77EF41F16BA0B61
:10234000620B730B840BBAF09150A1F0FF0FBB1F0F
:10235000661F771F881FC2F70EC0BA0F621F731F58
:10236000841F48F4879577956795B795F7959E3FB5
:1023700008F0B3CF9395880F08F09927EE0F979543
:10238000879508950CD0EBC0E3D040F0DAD030F060
:1023900021F45F3F19F0CCC0511115C1CFC0F0D06E
:1023A00098F39923C9F35523B1F3951B550BBB271C
:1023B000AA2762177307840738F09F5F5F4F220FC9
:1023C000331F441FAA1FA9F333D00E2E3AF0E0E8C2
:1023D00030D091505040E695001CCAF729D0FE2F0E
:1023E00027D0660F771F881FBB1F261737074807A0
:1023F000AB07B0E809F0BB0B802DBF01FF27935856
:102400005F4F2AF09E3F510568F092C0DCC05F3FED
:10241000ECF3983EDCF3869577956795B795F7953D
:102420009F5FC9F7880F911D9695879597F9089535
:10243000E1E0660F771F881FBB1F621773078407D1
:10244000BA0720F0621B730B840BBA0BEE1F88F7E0
:10245000E095089504D06894B111B5C0089598D05E
:1024600088F09F5790F0B92F9927B751A0F0D1F07D
:10247000660F771F881F991F1AF0BA95C9F712C007
:10248000B13081F09FD0B1E008959CC0672F782FC4
:102490008827B85F39F0B93FCCF386957795679573
:1024A000B395D9F73EF490958095709561957F4FDF
:1024B0008F4F9F4F0895E89409C097FB3EF4909585
:1024C0008095709561957F4F8F4F9F4F9923A9F00D
:1024D000F92F96E9BB279395F6958795779567959C
:1024E000B795F111F8CFFAF4BB0F11F460FF1BC0E0
:1024F0006F5F7F4F8F4F9F4F16C0882311F096E973
:1025000011C0772321F09EE8872F762F05C0662320
:1025100071F096E8862F70E060E02AF09A95660FD9
:10252000771F881FDAF7880F9695879597F9089592
:1025300097F99F6780E870E060E008959FEF80EC76
:10254000089500240A941616170618060906089519
:1025500000240A9412161306140605060895092E7F
:102560000394000C11F4882352F0BB0F40F4BF2BEE
:1025700011F460FF04C06F5F7F4F8F4F9F4F08952E
:1025800057FD9058440F551F59F05F3F71F0479524
:10259000880F97FB991F61F09F3F79F08795089509
:1025A000121613061406551FF2CF4695F1DF08C028
:1025B000161617061806991FF1CF86957105610545
:1025C00008940895E894BB2766277727CB0197F9ED
:1025D00008950AD0C4CFB5DF28F0BADF18F09523EC
:1025E00009F0A6CFABCFEFCFCBDFA8F39923D9F378
:1025F0005523C9F3950F50E0551FAA27EE27FF2753
:10260000BB2700240894679520F4E20FF31FB41F42
:102610000A1E220F331F441FAA1F6695A9F777953C
:1026200030F4F30FB41F0A1E121E08F46395330F23
:10263000441FAA1F221F769599F7879520F4B40F9F
:102640000A1E121E631F440FAA1F221F331F8695E6
:10265000A9F7862F712D602D11249F5750408AF0C5
:10266000E1F088234AF0EE0FFF1FBB1F661F771FA4
:10267000881F91505040A9F79E3F510570F058CFE8
:10268000A2CF5F3FECF3983EDCF386957795679594
:10269000B795F795E7959F5FC1F7FE2B880F911DC2
:1026A0009695879597F90895E199FECF1FBA8EBB4D
:1026B000E09A99278DB30895262FE199FECF1FBA8E
:1026C0008EBBE09A81500DB2021639F01CBA2DBBB8
:1026D0000FB6F894E29AE19A0FBE0895F894FFCFEE
:1026E000060B18010101000401023719010582825D
:1026F0000101820102142D070205040310010E01DD
:102700000C010201000000000000000100000000B8
:1027100000000000010000230125022603270428F1
:06272000052906FF06007A
:00000001FF
