:10000000F6C010C112CD0EC10DC10CC10BC10AC189
:10001000BFCC08C107C106C1F9CC04C103C132304D
:1000200032323035333030333131000000000000DF
:1000300000000000000000000000000000000000C0
:1000400000000000000000000000000000000000B0
:1000500000000000000000000000000000000000A0
:100060000000000000000000000000000000000090
:100070000000000000000000000000000000000080
:100080000000000000000000000000000000000070
:100090000000000000000000000000000000000060
:1000A0000000000000000000000000000008131F16
:1000B0002B37434F5B6875828F9DAAB8C6D4E2F098
:1000C000FF00000000000000000000000000000031
:1000D0000000000000000000000000000000000020
:1000E0000000000000000000000000000000000010
:1000F0000000000000000000000000000000000000
:100100000000020406080A0D0F111316181A1D1F0D
:100110002225272A2D303336393C4043464A4D515B
:1001200055585C6064686C7074797D82868B8F949E
:10013000999EA3A8ADB3B8BDC3C9CED4DAE0E6ECAE
:10014000F3F9FFFFFFFFFFFFFFFFFFFFFFFFFFFFD1
:10015000FFFFFFFFFFFF000101020203030404058C
:10016000060708090A0C0D0E0F11131416181A1D94
:100170001F2224272A2D3033373B3E42464B4F5413
:10018000595D63686E73797F868C939AA1A8B0B825
:10019000C0C8D1D9E2ECF5FFFFFFFFFFFFFFFFFF73
:1001A000FFFFFFFFFFFFFFFFFFFFFFFFFFFFFFFF5F
:1001B000FFFFFFFFFFFFFFFFFFFFFFFFFFFFFFFF4F
:1001C000FFFFFFFFFFFFFFFFFFFFFFFFFFFFFFFF3F
:1001D000FFFFFFFFFFFFFFFFFFFFFFFFFFFFFFFF2F
:1001E000FFFFFFFFFFFFFFFFFFFFFFFF00001124E6
:1001F0001FBECFE5D2E0DEBFCDBF10E0A0E6B0E08D
:10020000EEECFFE102C005900D92A239B107D9F7DB
:1002100021E0A2E9B0E001C01D92A433B207E1F7EA
:1002200013DCD3CEEDCE482F9B01E1E0F1E080E07E
:1002300090E05081552331F001963396803191053D
:10024000C1F709C063E070E062DEFC01EF5FFE4FC2
:1002500040833283218308950F931F93CF93DF93BD
:10026000D0910101DD2351F10091020110910301B0
:10027000C091DE00C150C7FD0DC0EC2FEE0FFF0B8B
:10028000E152FF4F0190F081E02DB8018D2F0995CB
:100290008111F0CFE1E0F1E0838180838481958159
:1002A00092838183339681E0EE32F807A9F71092AA
:1002B0002E011092300110922F01D2CFDF91CF91F9
:1002C0001F910F910895BC0180913301ACCF109222
:1002D0003301109232011092310181E08093BD0010
:1002E000089590E822E048EA57E030E0815070F04D
:1002F0000FB6F89496BD26BD0FBEFA013197F1F7FF
:100300000FB6F89496BD36BD0FBEF0CF089586B3F4
:1003100083FB882780F991E089278093D70008958F
:10032000E0916600F09167003196FB70F460F09305
:100330006700E09366008091D3008B5A8093D300CE
:10034000E4918091D3008E0F0895CF93DF9300D076
:1003500000D000D0CDB7DEB7662309F1823019F4A2
:1003600097E9961B692F2091B90096E0EBE7F0E042
:10037000DE01119601900D929A95E1F7E82FF0E0D9
:100380003197EE0FFF1F81E090E08C0F9D1FE80F6B
:10039000F91F0190F081E02DE20FF11D6083269698
:1003A0000FB6F894DEBF0FBECDBFDF91CF91089599
:1003B000BF92CF92DF92EF92FF920F931F93CF9352
:1003C000DF93EC014091B900842F90E0FC01EE58DE
:1003D000FF4F208120937500FC01E059FF4F808181
:1003E0008093740030916F00622F70E0442349F0D5
:1003F000313039F49B01280F311DC901959587953E
:1004000036C0C617D70794F1682F70E06C177D07C8
:1004100074F1411102C08C2F2AC0821B032F10E0FF
:1004200001501109E82EF12CC701B801A1DD60933C
:10043000B7006695E62FF0E0822FC12CD12CB12CAD
:10044000B316A9F0C601B8017FDD822F860FCE0C4E
:10045000DF1CAE01481B510957FF03C05195419560
:100460005109E417F5071CF4B394EACF822FDF910A
:10047000CF911F910F91FF90EF90DF90CF90BF90A1
:10048000089581E0089561116093790008956623CD
:1004900089F0813061F48091F2009091F100891B24
:1004A000681B6093F10082E080937A0003C0635E72
:1004B0006093780080917800873418F086E4809308
:1004C000780008956093B20008950F931F93CF931F
:1004D000DF938091B9008093BE0080917200809379
:1004E000BF00809170008093C00080916E00809367
:1004F000C100809173008093C2008091710080934D
:10050000C30080916F008093C4008091B8008093F5
:10051000C500809176008093C6008091BB008093D7
:10052000C7008091BA008093C80080916B008093CF
:10053000C900809169008093CA0080916A0080930D
:10054000CB00809168008093CC0080916C008093F8
:10055000CD00809178008093CE008091F10080934F
:10056000CF00809179008093D00080916D008093BE
:10057000D1008091B2008093D200F8940EEB10E08D
:10058000C1E0D1E0F80161918F01CE010CDD21962F
:10059000C631F1E0DF07B1F765EA80E091E003DD05
:1005A0007894DF91CF911F910F910895882321F0C6
:1005B000813029F4BA9804C0BA98C2980895BA9ABA
:1005C000C29A0895CF93C82F8093D5008093D4000A
:1005D0008091D600811101C0E9DFC11104C019BCAE
:1005E00018BC1BBC12C0C1508C2F90E0FC01E95A12
:1005F000FE4FE491E9BDFC01EF53FF4FE491E8BDEC
:10060000FC01E55DFF4FE491EBBD8091D5008530A5
:1006100010F492E005C08E3010F491E001C090E03B
:1006200080E80FB6F89486BD96BD0FBECF910895B1
:100630008093BC00C7CFCF93C091D50089E18C0FC8
:10064000873908F080E0BEDF82E04BDE8C2FCF914F
:10065000B9CFCF93C091D50080E0B4DF83E041DE15
:100660008C2FCF91AFCF813019F41092BB00089539
:10067000823019F46093BA000895833019F46093BE
:10068000B8000895843011F4609376000895909135
:10069000F4009D3110F480E006C08F70E82FF0E088
:1006A000EF57FF4F808182CF883039F41092B60027
:1006B0001092B4001092B3003FC0813B59F4809176
:1006C000B60081508330D0F583E08093B6008093EC
:1006D000B50034C0853BA9F4CB016EE370E034DC97
:1006E000892B51F58091B6008A3F30F58B5F80935E
:1006F000B6008093B5001092B4001092B3009BDF57
:100700001BC08130D9F48091B3009091B400019660
:1007100088382EE0920728F49093B4008093B300B9
:100720000BC01092B4001092B3008091B6008823E1
:1007300019F081508093B60080E0089581E008951B
:10074000FF920F931F93CF93DF938C01EB01F42E55
:100750008091EF009091F000892B31F0E091EF0053
:10076000F091F00089E009951093F0000093EF00FC
:10077000012B39F0E091EF00F091F000BE018F2DD8
:10078000099581E08093BD00DF91CF911F910F917A
:10079000FF900895CF93DF93E091DE00EE2359F0B0
:1007A000E150E093DE00F0E0EE0FFF1FE152FF4F5B
:1007B000C081D18102C0C0E0D0E0E091DE00EE2334
:1007C00041F0F0E0EE0FFF1FE352FF4F8081918177
:1007D00002C080E090E04AE060E070E0B1DFCE016E
:1007E000DF91CF910895883029F41092AF001092D4
:1007F000960015C08130F9F490919600911107C0D0
:100800006032710568F18093960061DD29C09130F6
:1008100081F46B3B710528F082E08093960080E0C4
:100820001EC061157105E1F06270862F880F8E5E23
:1008300016C0B0DF15C0813811F0813E89F491E017
:1008400090939600813E21F48091AF00865F03C0B3
:100850008091AF008F5F8093AF0039DD82E3B2DE1D
:1008600080E008959C019091DE00983088F4E92F93
:10087000F0E0EE0FFF1FE152FF4F318320839F5FB7
:100880009093DE0048E0C9015BDF8091DE000895AF
:100890008FEF08950F931F93CF93DF93EC018B019C
:1008A00079DFB801CE01DF91CF911F910F91DACF9F
:1008B000813C29F460E070E080E994E006C0823C6D
:1008C00039F460E070E087E795E0E4DF80E00895C8
:1008D00081E00895843011F58091EF009091F0004F
:1008E0002BE08D30920729F469E170E08BEA95E006
:1008F00013C08B5A954061F49091D500923040F02E
:10090000892F869596959695890F92DE80E00895B9
:1009100060E070E080E994E0BDDFF8CF81E0089509
:10092000CF93DF93EB01883079F480E04BDE809148
:100930006D0083703BDE1092B600CD2B19F481E080
:100940008093D60080E0A9C0813051F469317105EF
:10095000C8F38093D60080916D00837027DEF2CFBC
:10096000833011F52091BB00222359F08091BA0009
:1009700090E062EC71E0CBDAC817D90710F0209351
:10098000770080916D008370833011F48C2F7FDEAF
:100990008091B2008823B1F290E062EC71E0B7DAA6
:1009A0008C179D0778F646C0813B91F481E090E07A
:1009B000FFDC08DE8091B8008111C4CF8091B900BE
:1009C000811103C0689708F4BDCF61E070E023C0D7
:1009D000813ED9F3813821F48091770090E00EC0F8
:1009E000813C21F46091D50070E015C0823B51F448
:1009F00080917600811104C086E990E0D9DC05C0C1
:100A000086E903C0823E19F480E0DCDD9BCF823CA6
:100A100029F466E970E08BEA95E02EC08339A1F3F2
:100A2000833C29F460E070E087E795E025C0843CD2
:100A300031F401DE60E070E08DE198E01DC08D3B97
:100A400031F4F89488ED81BD7894A895FFCF8F3C60
:100A500029F460E070E081E492E00EC0833B29F469
:100A600060E070E08DE09BE007C0853C39F4E3DD99
:100A700060E070E084E89CE00DDF64CF873C61F4C7
:100A800090916D0081E0890F83709C7F982B9093EB
:100A90006D008CDD1ADD56CF81E0DF91CF91089596
:100AA000813C29F460E070E080E994E006C0823C7B
:100AB00031F460E070E088E594E0ECDE14C0813B46
:100AC00041F4CB016EE370E03FDA892B61F4B3DDD2
:100AD0000AC0813E51F4CB016EE370E035DA6F5FFE
:100AE00060936C00F2DC80E0089581E00895813C21
:100AF00029F460E070E080E994E006C0823C31F4C3
:100B000060E070E081E995E0C5DE07C0873B39F41D
:100B100060E070E081E198E0A5DE80E0089581E08A
:100B20000895813C29F460E070E080E994E006C01B
:100B3000823C31F460E070E080E595E0ABDE07C018
:100B4000873B39F460E070E085E198E08BDE80E07F
:100B5000089581E00895AF92BF92CF92DF92EF9215
:100B6000FF920F931F93CF93DF93182FEB01E09029
:100B7000750000917400B090B900BB2019F0D090BE
:100B8000B70002C0DD24D394C0907600CC2051F091
:100B900081E0C81621F080917700801718F0A6E94F
:100BA000FA2E01C0F02EA090B600BE01812F7CDD90
:100BB0006091B600662339F0A1100CC08091D50079
:100BC00080939A0007C0AA2029F060E070E080E9D5
:100BD00094E0B6C1812F8D7F8830B1F41092B100BE
:100BE0001A3019F4C0917700D0E0F12CEC16FD0614
:100BF00030F410E0C017D10710F4C0937700CE0195
:100C0000D7DB16DD81E07BC0113CF9F2123C71F4B8
:100C10008091D5008F1510F48F2D02C08091770040
:100C200007DD8091D50080939A00A3C1143C39F46C
:100C300080E0C8DC60E070E08DE198E081C18FE485
:100C4000810F823008F054C0BB2039F0CE0168E13A
:100C500070E07AD9892B31F08CC160916E0070E020
:100C6000CE01F7CF2091D500209761F4123B11F40B
:100C70008FEF05C02017E0F7E216F8F081E08093CF
:100C800065001BC0E0916E00F0E0CF0166E371E00B
:100C90003ED98C179D0710F4201750F7CF016CE652
:100CA00072E035D98C179D0740F4E21630F0C3DCB2
:100CB00060E070E08DE198E0EDDDD091D5008091AD
:100CC00065006D2D70E0082E000C990B20D98D0F5A
:100CD000911D6EDBC82F80937700D81739F08238CA
:100CE00021F0813411F0081301C0B3DC8C2F98CFB0
:100CF0008FE1810F823030F480916500819580937F
:100D0000650037C1113009F0B2C0A99711F41093F2
:100D10006500662391F080919A0070E0615071093E
:100D200090E0F5D86091B50070E022D9611101C062
:100D300061E06093D4006093BC008091D4009091F6
:100D4000D500282F30E0291B31096091980070915F
:100D500099006F5F7F4F7093990060939800211501
:100D6000310509F406C137FF05C0933830F040E47F
:100D700050E005C040E052E002C040E051E056952E
:100D8000479537FF02C02F5F3F4F359527952115B7
:100D90003105A9F74617570708F0EBC0891710F47B
:100DA0008FEF03C0981710F481E0890FAFEFA80F01
:100DB0002A2F30E0B901695A7E4FFB014491A917EF
:100DC00038F499B5911104C04F3F11F449BD0CC0DE
:100DD00099B5941718F499B59F5F05C099B549174F
:100DE00018F499B5915099BDA9014F535F4FFA017D
:100DF0009491E091D500AE1728F4E8B5E11102C056
:100E00009F3F59F0E8B5E91718F498B59F5F05C002
:100E1000E8B59E1718F498B5915098BD255D3F4FE1
:100E2000F9019491EBB5E91718F49BB59F5F05C0E4
:100E3000EBB59E1718F49BB591509BBD99B5FB017E
:100E4000649196130FC098B5FA01449194130AC0A7
:100E50009BB5F9012491921305C0C091D400B2DB77
:100E6000C093D400109299001092980082C015305F
:100E7000A9F48091D500823408F47BC090E08C1BEB
:100E80009D0B282F813491052CF08739910518F09E
:100E900026E901C021E42093D4006BC01630B9F4D8
:100EA0009091D5008091BC00981708F062C0C90FDE
:100EB000D11D90E08C179D0734F0C134D10524F486
:100EC000C1E4D0E001C0EC01C093D40052C017309F
:100ED00079F49091D4008091D500891710F48F5F38
:100EE00004C0981708F045C081508093D40041C0D9
:100EF000133C71F481E0B11080E08093B900E5DA31
:100F0000A8DB8091D50090E053DA8093770088CEFB
:100F1000133B41F4CD2B69F5CC2011F086E9F82E76
:100F20008F2D04C0133E21F48091770081DB21C016
:100F3000153C41F480E046DB60E070E084E89CE032
:100F4000A9DC17C0173B29F460E070E089E098E065
:100F50000FC01A3C39F48091D5008093BB00B5DAFC
:100F60006ADB07C01A3B39F460E070E08DE098E07E
:100F700079DC80E001C081E0DF91CF911F910F917A
:100F8000FF90EF90DF90CF90BF90AF9008958830A2
:100F900061F41092970080E015DB8091D7008111F9
:100FA00036C081E08093970022C0982F907F903BBD
:100FB000B1F420919700421778F0CB016DE570E015
:100FC000C3D7029739F42F5F209397004217F8F0A8
:100FD00088E303C082E101C080E0F4DA18C0903EEB
:100FE00061F480919700882389F0481778F060E0D9
:100FF00070E083EF93E036DC0AC08A3041F4609100
:10100000AF0080919700F90109955FDAC3DB80E0BA
:10101000089525EA31E043E0BACF23E333E044E02A
:10102000B6CF23E432E041E0B2CF27E432E042E041
:10103000AECF22E632E041E0AACF0F931F93CF93C9
:10104000C82F8B0180798039B1F420917200909182
:1010500073008C2F8F70823041F48091BB0081111E
:1010600008C0822F291728F403C0822F921708F492
:10107000892FA8DA1BC0803819F480E0A3DA08C0F1
:10108000C83031F480916D00869586958FDA5DC009
:10109000C13061F40931110508F455C0C093D60080
:1010A00080916D008695869581DA4DC0C33049F4F4
:1010B00080916D008C708C3009F045C0802FE7DA8C
:1010C00042C0C33C31F4B7DA60E070E080E994E0FC
:1010D0001EC0C43C71F4C091BB00CC2319F06C2F2E
:1010E00070E013C06091770070E08BEA95E0D2DB8E
:1010F0002DC0C43B31F4ADDA1092330161E070E0F1
:1011000004C0C53C31F466E970E08BEA95E0C2DBCF
:101110001AC0CA3B31F460E070E089E198E0A2DBDC
:1011200012C0C73C91F490916D00892F86958695E9
:101130008F5F8370282F220F220F9370920F90934E
:101140006D0034DAC2D9C0E001C0C1E08C2FCF916C
:101150001F910F9108958CE287B91092FE001092B2
:10116000FF0086B1886486B908951092000124B109
:1011700095B13091D3002295269526952370892F1D
:1011800090E0880F991F880F991F820F911D830F80
:101190008093D3008091F500882309F40BC110924D
:1011A000F5008091FE009091D600992319F03798B0
:1011B0001092FE00811143C080917A00882349F08B
:1011C0006091FA007091FB007093F7006093F60055
:1011D00004C06091F6007091F700605F7F4FA6E059
:1011E00076956795AA95E1F780E098E5ADD6809170
:1011F000790090E00297680F791F76956795609364
:10120000F4008091AE00882311F0815007C06D3149
:1012100038F460E070E084E006D885E08093AE00AA
:101220008091D6008111BDC08FEA87B981E080939B
:10123000FE001092FF0086B1886486B9B2C081308A
:1012400009F0AFC080917A00811143C08091F8000D
:101250009091F90040969C0145E0369527954A9576
:10126000E1F7A091F100A901569547950A2E000CCF
:10127000BB0BCD0183519140840F951F9093F300D8
:101280008093F20080919D00E82FF0E0EE0FFF1FA9
:10129000E256FF4F40815181B901641B750B3183C8
:1012A00020838F5F877080939D00CB01880F991FEB
:1012B000880F991F4091780050E04D5E5E4F4A1BA9
:1012C0005B0B440F551F841B950B820F931F23E06C
:1012D0001CC08091FC009091FD009093F9008093D8
:1012E000F800409635E0969587953A95E1F7EEE956
:1012F000F0E08193919320E0EE3AF207D1F7A6CF88
:10130000009709F00196215029F018161906C4F724
:101310000197F9CF18161906E4F477FD39C020912A
:101320009C0012160CF1880F991FBC0163507109C3
:1013300077FF02C06F5F7F4F75956795161617068A
:1013400014F061E070E088E1861B80939C0085E0EA
:1013500026C08C3F2FEF9207DCF477FF19C0209155
:101360009C0027FF05C02450281B20939C0018C018
:1013700024EE281B20939C002091F4002F3180F054
:101380006CEF7FEF681B790B7595679586E007C05A
:101390008091F4008E3120F060E070E087E043D768
:1013A000DADE80917A00882329F080917A008150DA
:1013B00080937A0008950F931F93CF931092D900D2
:1013C00080913101909132019C012F5F3F4F88271E
:1013D0009078822B932B9093320180933101C091AE
:1013E000D70095D7C81729F11092D6008093D7005F
:1013F00090913301882359F0892F80699F709F3025
:1014000009F08F5F8093330180E090E00DC0892F59
:101410008F7E95FD02C0806801C0806C809333018F
:1014200080913101909132014ED710923201109289
:10143000310100913101109132018091D600882351
:1014400079F0B80183E0EFD607D70F731127012B8E
:1014500009F044C010929B007EDE87EE86B92EC054
:10146000C09133018C2F807F803B19F460E070E0E5
:1014700001C0B80181E0D7D6C4FF12C0C5FF02C0C9
:10148000C8010CC008311105C8F010923201109249
:101490003101C062C093330180E090E014D70EC0E8
:1014A000CC2361F0C5FD09C00231110538F0C064DC
:1014B000C093330180E090E006D709D780919B006C
:1014C000811106C086B1886486B981E08093F500F9
:1014D00080919B008F5F8F7180939B00CF911F91B4
:1014E0000F9108958091000181113FDE8091D90014
:1014F000811161CF0895CF92DF92EF92FF920F9307
:101500001F93CF93DF93EC0110E800E088E0E82E12
:1015100087E0F82E92ECC92EDD24D394209709F1B0
:101520008091BD0081111FC08091D500853040F4AD
:1015300082E00FB6F89416BD86BD0FBEC60106C088
:101540000FB6F89416BD06BD0FBEC7010197F1F79F
:101550000FB6F89416BD06BD0FBEC4DF7DD6219729
:10156000DDCF81E001C080E0DF91CF911F910F912D
:10157000FF90EF90DF90CF900895CF93C82F8823EE
:1015800081F089E11FD886EA90E0B5DF80E01AD8C3
:101590008AEF90E0B0DFC150A1F78AE992E0CF91E5
:1015A000AACF89E10FD888E090E0A5DF80E00AD8D3
:1015B0008AEF90E0A0DFF1CFCF93DF9364E6B8D459
:1015C000282F892F6AE0B4D4EC01222341F0822F26
:1015D000D4DF8C2FD2DF8D2FDF91CF91CECFC111F1
:1015E000F8CFF9CFCF93DF93C82FD62FCC2391F02C
:1015F00080917700E7D784E690E07DDFDD2319F066
:1016000088EC90E078DF80E0DDD784E690E073DF5F
:10161000C150ECCFDF91CF910895DF92EF92FF920E
:101620000F931F93CF93DF93D82F8B01C0916B0043
:1016300081E08093B100C33009F0D3C0F090B600D0
:101640008D2F32D8FF2051F08091B600811106C055
:1016500060E070E080E994E01DD9C3C0D83021F487
:1016600081E080936300BFC0D23C19F41092B600B1
:10167000C8C0D13BC1F490916200012B49F49E3661
:1016800010F08FEF03C0923018F481E08093630074
:1016900080916300890F11F481E02BC18F3608F42B
:1016A00028C18EE626C1D13E31F480916300819538
:1016B00080936300DCC0D23B61F481E080936300DF
:1016C00080916200823008F4DAC081508093620019
:1016D000D6C0D13009F0E4C00932110511F4D0931D
:1016E0006300D09095008D2D880FD7FC809590E0F9
:1016F00067E070E00CD4292FE09094008E2D880FC5
:10170000E7FC8095D09161006D2F70E090E0FFD3F1
:10171000290FF09093008F2D880FF7FC8095C091D2
:1017200060006C2F70E090E0F2D3920F6091620045
:1017300070E0690F711D8091B600813091F4809145
:10174000B3009091B40025E0969587952A95E1F72E
:1017500024E730E0A901481B590BCA01D8D3B901CD
:10176000F3D3862F2FD700FD05C0DAD58170D80EB0
:10177000D092950080919200E80EE0929400D0D52E
:1017800065E2D6D3F90EF0929300CAD58F7329F48F
:10179000C7D56DE0CDD390939200DD2331F0C0D555
:1017A0008F7319F4D150D0936100BAD5811107C05D
:1017B000B7D56BE0BDD39093610010929400C33015
:1017C00030F0AED58F7119F4C150C0936000A8D528
:1017D0008F7709F079C0A4D566E0AAD39093600012
:1017E00073C0D83021F481E08093640084C0D13C80
:1017F00031F460E070E080E994E04CD87CC0D23CE9
:1018000049F48C2F90E0019665E070E0B1D38093AD
:101810006B004BC0D13B49F5C23090F400FD6BC06A
:10182000EC2FF0E0E759FF4F808190916400891B15
:10183000883020F08F3F91F58EEF30C088E02EC0C9
:10184000C43009F058C09091680080916400890FFD
:10185000823010F482E003C0893708F088E7809373
:10186000680080916800AED646C0D13E31F48091C8
:10187000640081958093640018C0D23BA1F481E09C
:1018800080936400C23060F500FD35C0EC2FF0E0BD
:10189000E759FF4F80818F3F71F18F5F80832BC0AD
:1018A000D13C09F4A6CFD23E11F40FD624C0D53CCA
:1018B00039F460E070E084E89CE0ECD780E0D3CFBE
:1018C000D13011F081E018C00932110519F481E01E
:1018D000809364008091D300080F0093D3000BC065
:1018E000C43049F480916800833008F4BACF815045
:1018F000B6CF8093620080E0DF91CF911F910F916E
:10190000FF90EF90DF9008950F931F93CF93DF9395
:10191000D82F8B01883031F48091B100813011F4DF
:1019200088E07BDE8D2F8079803959F481E08093C7
:10193000B000C091B100C1110AC08091770042D6B9
:1019400021C0803831F41092B00080E03BD6C0E076
:1019500019C0D130B1F4C091B000CC2351F08091C6
:10196000B1008130A1F7B801DF91CF911F910F91A4
:1019700054CE0733114058F3D093D60080E016D6EA
:1019800001C0C1E08C2FDF91CF911F910F9108957D
:101990001F920F920FB60F9211242F933F938F93A4
:1019A0009F93AF93BF93EF93FF938091FF008823A2
:1019B000E9F0E091FE0024B135B1F0E0EE0FFF1F39
:1019C000DF01A650BF4F2D933C93EA50FF4F80811B
:1019D00091818217930708F401962817390708F4B4
:1019E00001979183808381E08093000181E080935F
:1019F000FF00FF91EF91BF91AF919F918F913F9128
:101A00002F910F900FBE0F901F9018951F920F925D
:101A10000FB60F9211248F9381E08093D9008F919C
:101A20000F900FBE0F901F9018951F920F920FB638
:101A30000F9211248F9381E08093D8008F910F90A3
:101A40000FBE0F901F901895F89484B7877F84BFBE
:101A50000FB6F894A89581B5886181BD11BC0FBE01
:101A6000B89A81E083BF91EA9ABDB99ABC9A80BFC7
:101A700080E68CBD8FEF8DBD88E088BB85BB8BB7C2
:101A800080628BBFA89581B5886181BD80E481BDEE
:101A900062DB87EE86B9789481E023D460E070E061
:101AA0008AE694E0DFD61092BD00C5D584E619D44D
:101AB0002ED4811108C0F89480E091E06CD2853A70
:101AC00051F178948BC0C0E08C2F7CD583E190E0FD
:101AD00012DD8C2F869576D583E190E00CDD17D44E
:101AE000882381F0CF5FC03479F765E181E0CFD4FE
:101AF000ECD4C6E98C2F66D584E090E0FCDCC150C4
:101B0000C9F7D9CFCC23B9F28C2F5CD58DE090E00A
:101B1000F2DCC150F7CF0EEB10E0C1E0D1E0CE0116
:101B20003AD2F80181938F012196C631F1E0DF07A7
:101B3000B1F778948091BE008093B9008091BF0086
:101B4000809372008091C000809370008091C100EA
:101B500080936E008091C200809373008091C300D7
:101B6000809371008091C40080936F008091C500C4
:101B70008093B8008091C600809376008091C70062
:101B80008093BB008091C8008093BA008091C90007
:101B900080936B008091CA00809369008091CB0094
:101BA00080936A008091CC00809368008091CD0082
:101BB00080936C008091CE00809378008091CF005C
:101BC0008093F1008091D000809379008091D100C2
:101BD00080936D008091D2008093B2008091BB0011
:101BE00081118093770061E070E080E994E03AD65B
:101BF00043E4342E52E0452E67EE562E70E4672EF5
:101C000077247394CC24C394D12CFCEFAF2EF3E053
:101C1000BF2EA0E98A2EA4E09A2E1ED38091DC006C
:101C20009091DD00009749F06091DA007091DB003F
:101C300031D61092DD001092DC008091D60088230E
:101C400009F444C080E0BED4A89581B5886181BD07
:101C500031BC37985CD38111FDCF39D38BB780620B
:101C60008BBF109200011092D9001092D800809181
:101C7000D6008823F9F085B7877E806185BF85B758
:101C8000806285BF889585B78F7D85BF8091D8009C
:101C900081111092D60080910001882329F0709262
:101CA0007A007092F50061DA8091D9008823F9F208
:101CB00082DBDDCF40927A008BB78F7D8BBF4BDA12
:101CC00056B8A89581B5886181BD61BC0BDC1092C6
:101CD000BD008091EF009091F00022E081349207E6
:101CE000B9F4CEE1D0E0FE018491805346DC8CE271
:101CF00091E001DC2196F0E0CA32DF07A1F7909273
:101D0000DD008092DC001092DB001092DA0085CFBB
:101D10002BE08D30920779F03CE08438930709F08E
:101D2000A2C08091B100813009F0E6C08091B0007E
:101D3000882309F4E1C0C0916B00C23001F120F0AA
:101D4000C43009F476C069CFEC2FF0E0E759FF4FBB
:101D5000D08182E837D4C11109C0DA3220F4C5013C
:101D60000197F1F707C081E090E003C08D2F8695C1
:101D700090E0C1DB80E026D48D2F90E0BBC0D0D2B4
:101D80008F73E82EF12CCCD267E0D2D0E60102C0EE
:101D9000CC0FDD1F9A95E2F7C3D265E0C9D0F601FA
:101DA00002C0EE0FFF1F9A95E2F7CE0FDF1FB8D2E9
:101DB00090E0BE01DDD0C80FD91FC739D10514F09E
:101DC000C6E9D0E08C2FFED3C70195DB8E0133E04E
:101DD000159507953A95E1F7011101C001E010E072
:101DE000C70189DBC01BD10BD7FF02C0C0E0D0E028
:101DF0008C2FE8D395D2837031F4C7017CDBCE0100
:101E000095958795DFD3C230D10554F789D26DE01F
:101E10008FD0E60102C0CC0FDD1F9A95E2F780D289
:101E200090E0BE0191D0C80FD91F80E0CBD3CE0186
:101E300061C0C0916800CC0FC73908F0C6E9D4E092
:101E40008C2FC0D385E090E056DB80916800BAD338
:101E500081E490E050DBD15099F780ED92E04BDBCC
:101E600080E0B0D3DACEF5E087379F0721F4809188
:101E7000F400A2DBD2CE25E08139920731F48091C3
:101E8000F2009ADB88EE93E035C035E080359307A9
:101E9000A1F48091D7008111C0CE85E993D38AE067
:101EA00090E029DB80E08ED380916C0090E068EEBA
:101EB00073E02DD0845691091DC088559440E1F4FB
:101EC00061E081E08FDB60E081E08CDB61E081E05C
:101ED00089DB60E081E086DB88EE93E00CDB61E08B
:101EE00082E080DB60E081E07DDB61E081E07ADB45
:101EF00080ED97E000DB91CE85B7877E85BF85B703
:101F0000806285BF889585B78F7D85BF86CE00248A
:101F1000552704C0080E591F880F991F009729F0F4
:101F200076956795B8F37105B9F7802D952F0895CB
:101F3000991B79E004C0991F961708F0961B881F1B
:101F40007A95C9F780950895AA1BBB1B51E107C07C
:101F5000AA1FBB1FA617B70710F0A61BB70B881F39
:101F6000991F5A95A9F780959095BC01CD010895C8
:101F700097FB072E16F4009406D077FD08D0E4DF17
:101F800007FC05D03EF4909581959F4F089570957C
:101F900061957F4F0895E199FECF9FBB8EBBE09A7C
:101FA00099278DB30895262FE199FECF9FBB8EBB55
:101FB000E09A01970DB2021639F01CBA2DBB0FB68C
:0E1FC000F894E29AE19A0FBE0895F894FFCFCC
:101FCE00060B18010101000441294303020D01070C
:101FDE0082820114820102412D0702720070006E8E
:101FEE0000000102010000000000000100000000DE
:021FFE000000E1
:00000001FF
