:10000000ABC0C5C04ECCC3C0C2C0C1C0C0C0BFC061
:10001000FBCBBDC0BCC0BBC035CCB9C0B8C0323052
:1000200032323035333030313331000000000000DF
:1000300000000000000000000000000000000000C0
:1000400000000000000000000000000000000000B0
:1000500000000000000000000000000000000000A0
:100060000000000000000000000000000000000090
:10007000000000000000000000000000000001037C
:10008000040507080A0B0D0E1012131517191B1D76
:100090001F222426292B2E303336393C3F42454837
:1000A0004C4F53575B5F63676B7074797E83888DA9
:1000B00092989EA3A9AFB6BCC3CAD1D8DFE7EFF729
:1000C000FF010102020303040405050606070808F0
:1000D000090A0A0B0C0D0E0F101112131516171921
:1000E0001A1B1D1F20222426282A2C2E3133363895
:1000F0003B3E4144474A4E5155595D61656A6E73B6
:10010000787D82888D9399A0A6ADB4BBC3CAD2DB9B
:10011000E3ECF5FFFFFFFFFFFFFFFFFFFFFFFFFF28
:10012000FFFFFFFFFFFFFFFFFFFFFFFFFFFFFFFFDF
:10013000FFFFFFFFFFFFFFFFFFFFFFFFFFFFFFFFCF
:10014000FFFFFFFFFFFFFFFFFFFFFFFFFFFFFFFFBF
:10015000FFFFFFFFFFFF000011241FBECFE5D2E02D
:10016000DEBFCDBF10E0A0E6B0E0E2EAFDE102C0F4
:1001700005900D92AE38B107D9F721E0AEE8B0E0B6
:1001800001C01D92AD32B207E1F79ADB08CE38CF3D
:10019000482F9B01EAEFF0E080E090E0508155238A
:1001A00031F00196339680319105C1F709C063E0C3
:1001B00070E097DDFC01E650FF4F408332832183DE
:1001C00008950F931F93CF93DF93D091FA00DD230F
:1001D00051F10091FB001091FC00C091D700C1507B
:1001E000C7FD0DC0EC2FEE0FFF0BE852FF4F019043
:1001F000F081E02DB8018D2F09958111F0CFEAEF44
:10020000F0E083818083848195819283818333961A
:1002100081E0E732F807A9F710922701109229012F
:1002200010922801D2CFDF91CF911F910F910895A5
:10023000BC0180912C01ACCF10922C0110922B01AB
:1002400010922A0181E08093B900089590E822E09D
:1002500048EA57E030E0815070F00FB6F89496BD50
:1002600026BD0FBEFA013197F1F70FB6F89496BD8F
:1002700036BD0FBEF0CF089586B383FB882780F983
:1002800091E089278093D0000895E0916600F09175
:1002900067003196FB70F460F0936700E0936600AE
:1002A0008091CC008B5A8093CC00E4918091CC005B
:1002B0008E0F0895CF93DF9300D000D000D0CDB73C
:1002C000DEB7662309F1823019F497E9961B692F8E
:1002D0002091B50096E0E8E7F0E0DE01119601908C
:1002E0000D929A95E1F7E82FF0E03197EE0FFF1F9E
:1002F00081E090E08C0F9D1FE80FF91F0190F081C5
:10030000E02DE20FF11D608326960FB6F894DEBF54
:100310000FBECDBFDF91CF910895BF92CF92DF92F4
:10032000EF92FF920F931F93CF93DF93EC014091D5
:10033000B500842F90E0FC01E159FF4F208120930C
:100340007200FC01E359FF4F80818093710030916E
:100350006C00622F70E0442349F0313039F49B0186
:10036000280F311DC9019595879536C0C617D70747
:1003700094F1682F70E06C177D0774F1411102C091
:100380008C2F2AC0821B032F10E001501109E82E88
:10039000F12CC701B801D6DC6093B3006695E62F57
:1003A000F0E0822FC12CD12CB12CB316A9F0C601DC
:1003B000B801B4DC822F860FCE0CDF1CAE01481BC7
:1003C000510957FF03C0519541955109E417F507AD
:1003D0001CF4B394EACF822FDF91CF911F910F913C
:1003E000FF90EF90DF90CF90BF90089581E0089547
:1003F0006111609376000895662389F0813061F47D
:100400008091EB009091EA00891B681B6093EA00E1
:1004100082E08093770003C0635E609375008091F3
:100420007500873418F086E4809375000895609312
:10043000AE0008950F931F93CF93DF938091B50083
:100440008093BA0080916F008093BB0080916D0013
:100450008093BC0080916B008093BD008091700000
:100460008093BE0080916E008093BF0080916C00ED
:100470008093C0008091B4008093C100809173008C
:100480008093C2008091B7008093C3008091B60032
:100490008093C400809169008093C60080917500AC
:1004A0008093C7008091EA008093C8008091760015
:1004B0008093C90080916A008093CA008091AE0049
:1004C0008093CB00F8940AEB10E0C1E0D1E0F80192
:1004D00061918F01CE0151DC2196C331F1E0DF073C
:1004E000B1F765EA80E091E048DC7894DF91CF9144
:1004F0001F910F910895BC9AC49A0895882329F0FA
:10050000813031F4BC98C49A0895BC98C498089579
:10051000F2CFCF93C82F8093CE008093CD008091EF
:10052000CF00811101C0EADFC11103C019BC18BCA2
:100530000DC0C1508C2F90E0FC01EF53FF4FE491B0
:10054000E9BDFC01E55DFF4FE491E8BD8091CE007F
:10055000863010F492E005C08D3010F491E001C0B7
:1005600090E080E80FB6F89486BD96BD0FBECF919F
:1005700008958093B800CDCFCF93C091CE0089E18C
:100580008C0F873908F080E0C4DF82E05FDE8C2FBB
:10059000CF91BFCFCF93C091CE0080E0BADF83E090
:1005A00055DE8C2FCF91B5CF813019F41092B70062
:1005B0000895823019F46093B6000895833019F4D9
:1005C0006093B4000895843011F46093730008952B
:1005D0009091ED009D3110F480E006C08F70E82FFF
:1005E000F0E0E258FF4F808189CF883039F41092D3
:1005F000B2001092B0001092AF003FC0813B59F49E
:100600008091B20081508330D0F583E08093B200B6
:100610008093B10034C0853BA9F4CB016EE370E058
:100620007DDB892B51F58091B2008A3F30F58B5FDD
:100630008093B2008093B1001092B0001092AF008E
:100640009BDF1BC08130D9F48091AF009091B00046
:10065000019688382EE0920728F49093B00080939A
:10066000AF000BC01092B0001092AF008091B200AA
:10067000882319F081508093B20080E0089581E0D2
:100680000895FF920F931F93CF93DF938C01EB019B
:10069000F42E8091E8009091E900892B31F0E091EF
:1006A000E800F091E90089E009951093E9000093D2
:1006B000E800012B39F0E091E800F091E900BE017B
:1006C0008F2D099581E08093B900DF91CF911F9123
:1006D0000F91FF900895CF93DF93E091D700EE2321
:1006E00059F0E150E093D700F0E0EE0FFF1FE85221
:1006F000FF4FC081D18102C0C0E0D0E0E091D700BF
:10070000EE2341F0F0E0EE0FFF1FEA52FF4F808131
:10071000918102C080E090E04AE060E070E0B1DFEB
:10072000CE01DF91CF910895883029F41092AB006B
:100730001092920015C08130F9F4909192009111BD
:1007400007C06032710568F18093920075DD29C0A1
:10075000913081F46B3B710528F082E08093920028
:1007600080E01EC061157105E1F06270862F880F70
:100770008E5E16C0B0DF15C0813811F0813E89F45D
:1007800091E090939200813E21F48091AB00865FCE
:1007900003C08091AB008F5F8093AB004DDD82E39F
:1007A000B8DE80E008959C019091D700983088F4DD
:1007B000E92FF0E0EE0FFF1FE852FF4F3183208357
:1007C0009F5F9093D70048E0C9015BDF8091D7001D
:1007D00008958FEF08950F931F93CF93DF93EC014C
:1007E0008B0179DFB801CE01DF91CF911F910F917D
:1007F000DACF813C29F460E070E081E394E006C048
:10080000823C39F460E070E080E195E0E4DF80E074
:10081000089581E00895843011F58091E800909169
:10082000E9002AE08C38920729F469E170E084E459
:1008300095E013C08454954061F49091CE009230BD
:1008400040F0892F869596959695890F92DE80E0E7
:10085000089560E070E081E394E0BDDFF8CF81E0CF
:100860000895CF93DF93EB01883079F480E051DE77
:1008700080916A00837042DE1092B200CD2B19F491
:1008800081E08093CF0080E0A1C0813051F46931D4
:100890007105C8F38093CF0080916A0083702EDECB
:1008A000F2CF833011F52091B700222359F08091C7
:1008B000B60090E062EC71E014DAC817D90710F0C6
:1008C0002093740080916A008370833011F48C2F20
:1008D0007FDE8091AE008823B1F290E062EC71E09F
:1008E00000DA8C179D0778F647C0813B91F481E0D0
:1008F00090E013DD0EDE8091B4008111C4CF8091B1
:10090000B500811103C0689708F4BDCF61E070E0C5
:1009100023C0813ED9F3813821F48091740090E0A6
:100920000EC0813C21F46091CE0070E015C0823B86
:1009300051F480917300811104C086E990E0EDDCF0
:1009400005C086E903C0823E19F480E0E2DD9BCF5A
:10095000823C31F466E970E084E495E03CDF93CFBB
:10096000833999F3833C29F460E070E080E195E0FD
:10097000F5CF843C31F400DE60E070E085E997E07B
:10098000EDCF8F3C29F460E070E086EF91E0E6CF98
:10099000833B29F460E070E08CE89AE0DFCF853C8F
:1009A00031F4EADD60E070E080EC9BE0D7CF873C7B
:1009B00061F490916A0081E0890F83709C7F982B8D
:1009C00090936A009BDD36DD5ECF81E0DF91CF91B1
:1009D0000895813C29F460E070E081E394E006C072
:1009E000823C31F460E070E089EF93E0F4DE14C003
:1009F000813B41F4CB016EE370E090D9892B61F427
:100A0000BBDD0AC0813E51F4CB016EE370E086D9B4
:100A10006F5F609369000EDD80E0089581E00895C6
:100A2000813C29F460E070E081E394E006C0823C00
:100A300031F460E070E08AE295E0CDDE07C0873BEC
:100A400039F460E070E089E897E0ADDE80E0089579
:100A500081E00895813C29F460E070E081E394E056
:100A600006C0823C31F460E070E089EE94E0B3DED1
:100A700007C0873B39F460E070E08DE897E093DED3
:100A800080E0089581E00895AF92BF92CF92DF9207
:100A9000EF92FF920F931F93CF93DF93182FEB01E9
:100AA000E090720000917100B090B500BB2019F089
:100AB000D090B30002C0DD24D394C0907300CC204A
:100AC00051F081E0C81621F080917400801718F071
:100AD000A6E9FA2E01C0F02EA090B200BE01812F2F
:100AE00084DD6091B200662339F0A1100CC08091C2
:100AF000CE008093960007C0AA2029F060E070E045
:100B000081E394E095C1812F8D7F8830B1F41092FC
:100B1000AD001A3019F4C0917400D0E0F12CEC163D
:100B2000FD0630F410E0C017D10710F4C093740034
:100B3000CE01F3DB1EDD81E079C0113CF9F2123CFD
:100B400071F48091CE008F1510F48F2D02C080912A
:100B500074000FDD8091CE008093960082C1143C1A
:100B600039F480E0D6DC60E070E085E997E060C1B0
:100B70008FE4810F823008F052C0BB2039F0CE01E3
:100B800068E170E0CBD8892B31F06BC160916B00CC
:100B900070E0CE01F7CF2091CE00209761F4123B98
:100BA00011F48FEF05C02017E0F7E216F8F081E0AE
:100BB000809365001BC0E0916B00F0E0CF0166E31D
:100BC00071E08FD88C179D0710F4201750F7CF01D4
:100BD0006CE672E086D88C179D0740F4E21630F080
:100BE000CBDC60E070E085E997E0F5DDD091CE00E8
:100BF000809165006D2D70E0082E000C990B71D866
:100C00008D0F911D8ADBC82F80937400D81729F0AF
:100C1000833511F0081301C0BDDC8C2F9ACF8FE112
:100C2000810F823030F4809165008195809365005A
:100C300018C1113009F093C0A99711F41093650001
:100C4000662391F08091960070E06150710990E008
:100C500048D86091B10070E075D8611101C061E0C1
:100C60006093CD006093B8008091CD009091CE004C
:100C7000282F30E0291B3109609194007091950074
:100C80006F5F7F4F7093950060939400211531053D
:100C900009F4E7C037FF05C0933830F040E450E076
:100CA00005C040E052E002C040E051E05695479553
:100CB00037FF02C02F5F3F4F35952795211531052E
:100CC000A9F74617570708F0CCC0891710F48FEF23
:100CD00003C0981710F481E0890F7FEF780F272F5A
:100CE00030E0A9014F535F4FFA016491791738F44E
:100CF00099B5911104C06F3F11F469BD0CC099B54D
:100D0000961718F499B59F5F05C099B5691718F43F
:100D100099B5915099BD255D3F4FF901949168B502
:100D2000691718F498B59F5F05C068B5961718F451
:100D300098B5915098BD99B5FA01449194130AC0A1
:100D400098B5F9012491921305C0C091CD00E1DB63
:100D5000C093CD00109295001092940082C015307F
:100D6000A9F48091CE008D3308F47BC090E08C1BF9
:100D70009D0B282F8C3391052CF08739910518F0A5
:100D800026E901C02CE32093CD006BC01630B9F4E6
:100D90009091CE008091B800981708F062C0C90FFA
:100DA000D11D90E08C179D0734F0CC33D10524F48D
:100DB000CCE3D0E001C0EC01C093CD0052C01730AD
:100DC00079F49091CD008091CE00891710F48F5F57
:100DD00004C0981708F045C081508093CD0041C0F1
:100DE000133C71F481E0B11080E08093B50022DB08
:100DF000D1DB8091CE0090E090DA80937400A9CE90
:100E0000133B41F4CD2B69F5CC2011F086E9F82E87
:100E10008F2D04C0133E21F480917400AADB21C001
:100E2000153C41F480E075DB60E070E080EC9BE015
:100E3000D2DC17C0173B29F460E070E081E897E04E
:100E40000FC01A3C39F48091CE008093B700F2DADB
:100E500093DB07C01A3B39F460E070E085E897E067
:100E6000A2DC80E001C081E0DF91CF911F910F9162
:100E7000FF90EF90DF90CF90BF90AF9008958830B3
:100E800061F41092930080E044DB8091D0008111E6
:100E900036C081E08093930022C0982F907F903BD2
:100EA000B1F420919300421778F0CB016DE570E02A
:100EB00035D7029739F42F5F209393004217F8F04B
:100EC00088E303C082E101C080E023DB18C0903ECC
:100ED00061F480919300882389F0481778F060E0EE
:100EE00070E084E993E05FDC0AC08A3041F46091ED
:100EF000AB0080919300F90109959CDAECDB80E06E
:100F000008952AE531E043E0BACF24ED32E044E031
:100F1000B6CF28EF31E041E0B2CF2CEF31E042E034
:100F2000AECF27E132E041E0AACF0F931F93CF93DA
:100F3000C82F8B0180798039D1F490916F00209176
:100F400070008C2F8F70823049F48091B70081112E
:100F500008C0892F921728F4822F03C0822F2917E7
:100F600010F4891302C0C7DA14C0D3DA12C0803873
:100F700029F480E0C3DA80E0CCDA08C0C83031F46C
:100F800080916A0086958695B9DA52C0C13009F41D
:100F900051C0C33049F480916A008C708C3009F0E4
:100FA00045C0802F15DB42C0C33C31F4E5DA60E078
:100FB00070E081E394E01EC0C43C71F4C091B700BE
:100FC000CC2319F06C2F70E013C06091740070E0B6
:100FD00084E495E000DC39C0C43B31F4DBDA1092E4
:100FE0002C0161E070E004C0C53C31F466E970E0BA
:100FF00084E495E0F0DB1AC0CA3B31F460E070E0B5
:1010000081E997E0D0DB12C0C73C91F490916A006F
:10101000892F869586958F5F8370282F220F220F48
:101020009370920F90936A0069DA04DAC0E00DC001
:10103000C1E00BC009311105C8F3C093CF00809106
:101040006A00869586955ADAF1CF8C2FCF911F9141
:101050000F9108958CE287B91092F7001092F80072
:1010600086B1886486B908951092F90024B195B1CB
:101070003091CC002295269526952370892F90E0FB
:10108000880F991F880F991F820F911D830F8093DE
:10109000CC008091EE00882309F40BC11092EE0081
:1010A0008091F7009091CF00992319F03798109212
:1010B000F700811143C080917700882349F0609147
:1010C000F3007091F4007093F0006093EF0004C09F
:1010D0006091EF007091F000605F7F4FA6E0769521
:1010E0006795AA95E1F780E098E518D6809176009B
:1010F00090E00297680F791F769567956093ED00F1
:101100008091AA00882311F0815007C06D3138F416
:1011100060E070E084E03CD885E08093AA00809194
:10112000CF008111BDC08FEA87B981E08093F700BD
:101130001092F80086B1886486B9B2C0813009F097
:10114000AFC080917700811143C08091F1009091F0
:10115000F20040969C0145E0369527954A95E1F7C7
:10116000A091EA00A901569547950A2E000CBB0BE9
:10117000CD0183519140840F951F9093EC00809393
:10118000EB0080919900E82FF0E0EE0FFF1FE6568C
:10119000FF4F40815181B901641B750B318320835E
:1011A0008F5F877080939900CB01880F991F880FFC
:1011B000991F4091750050E04D5E5E4F4A1B5B0BDE
:1011C000440F551F841B950B820F931F23E01CC0F7
:1011D0008091F5009091F6009093F2008093F100D9
:1011E000409635E0969587953A95E1F7EAE9F0E083
:1011F0008193919320E0EA3AF207D1F7A6CF0097C6
:1012000009F00196215029F018161906C4F7019724
:10121000F9CF18161906E4F477FD39C0209198002B
:1012200012160CF1880F991FBC016350710977FFEA
:1012300002C06F5F7F4F759567951616170614F0FD
:1012400061E070E088E1861B8093980085E026C00D
:101250008C3F2FEF9207DCF477FF19C020919800A4
:1012600027FF05C02450281B2093980018C024EEA7
:10127000281B209398002091ED002F3180F06CEF17
:101280007FEF681B790B7595679586E007C08091A5
:10129000ED008E3120F060E070E087E079D7DADE93
:1012A00080917700882329F0809177008150809386
:1012B000770008950F931F93CF931092D2008091DF
:1012C0002A0190912B019C012F5F3F4F8827907836
:1012D000822B932B90932B0180932A01C091D000F5
:1012E000CBD7C81729F11092CF008093D0009091EE
:1012F0002C01882359F0892F80699F709F3009F055
:101300008F5F80932C0180E090E00DC0892F8F7E4D
:1013100095FD02C0806801C0806C80932C01809193
:101320002A0190912B0184D710922B0110922A014F
:1013300000912A0110912B018091CF00882379F030
:10134000B80183E025D73DD70F731127012B09F092
:1013500044C0109297007EDE87EE86B92EC0C09101
:101360002C018C2F807F803B19F460E070E001C07D
:10137000B80181E00DD7C4FF12C0C5FF02C0C8018B
:101380000CC008311105C8F010922B0110922A01EF
:10139000C062C0932C0180E090E04AD70EC0CC23FD
:1013A00061F0C5FD09C00231110538F0C064C09379
:1013B0002C0180E090E03CD73FD7809197008111CD
:1013C00006C086B1886486B981E08093EE00809182
:1013D00097008F5F8F7180939700CF911F910F912E
:1013E00008958091F90081113FDE8091D200811132
:1013F00061CF0895CF92DF92EF92FF920F931F93E8
:10140000CF93DF93EC0110E800E088E0E82E87E05E
:10141000F82E92ECC92EDD24D394209709F1809107
:10142000B90081111FC08091CE00863040F482E067
:101430000FB6F89416BD86BD0FBEC60106C00FB626
:10144000F89416BD06BD0FBEC7010197F1F70FB6A0
:10145000F89416BD06BD0FBEC4DFB3D62197DDCF0D
:1014600081E001C080E0DF91CF911F910F91FF904B
:10147000EF90DF90CF900895CF93C82F882381F00D
:1014800089E147D886EA90E0B5DF80E042D88AEF6C
:1014900090E0B0DFC150A1F78AE992E0CF91AACFE6
:1014A00089E137D888E090E0A5DF80E032D88AEF84
:1014B00090E0A0DFF1CFCF93DF9364E623D4282F11
:1014C000892F6AE01FD4EC01222341F0822FD4DF60
:1014D0008C2FD2DF8D2FDF91CF91CECFC111F8CFDE
:1014E000F9CFCF93DF93C82FD62FCC2391F08091E3
:1014F00074000FD884E690E07DDFDD2319F088ECDE
:1015000090E078DF80E005D884E690E073DFC1509A
:10151000ECCFDF91CF910895DF92EF92FF920F937E
:101520001F93CF93DF93C82F8B01D091680081E088
:101530008093AD00D13009F0D2C0F090B2008C2F72
:1015400054D8FF2051F08091B200811106C060E0B4
:1015500070E081E394E03FD9C2C0C83021F481E05B
:1015600080936300BEC0C23C19F41092B200C7C0A1
:10157000C13BC1F490916200012B49F49E3610F0FA
:101580008FEF03C0923018F481E080936300809164
:101590006300890F11F481E0E4C08F3608F4E1C0E4
:1015A0008EE6DFC0C13E31F4809163008195809367
:1015B0006300B1C0C23B61F481E08093630080911D
:1015C0006200823008F48DC081508093620089C02F
:1015D000C13009F0CAC00932110511F4C09363008B
:1015E000D09091008D2D880FD7FC809590E067E01A
:1015F00070E077D3292FE09090008E2D880FE7FCC4
:101600008095D09161006D2F70E090E06AD3290F32
:10161000F0908F008F2D880FF7FC8095C0916000AF
:101620006C2F70E090E05DD3920F6091620070E0EB
:10163000690F711D8091B200813091F48091AF00EB
:101640009091B00025E0969587952A95E1F724E7DB
:1016500030E0A901481B590BCA0143D3B9015ED33D
:10166000862F57D700FD05C010D68170D80ED092B6
:10167000910080918E00E80EE092900006D665E21F
:1016800041D3F90EF0928F0000D68F7329F4FDD567
:101690006DE038D390938E00DD2331F0F6D58F7353
:1016A00019F4D150D0936100F0D5811107C0EDD568
:1016B0006BE028D39093610010929000C33030F01B
:1016C000E4D58F7119F4C150C0936000DED58F77D7
:1016D000E1F5DBD566E016D39093600036C0C830E4
:1016E00021F481E0809364003EC0C13C31F460E0AD
:1016F00070E081E394E06FD836C0C23C41F48D2F96
:1017000090E0019681709927809368000EC0C13BDC
:1017100051F1C13E31F48091640081958093640061
:1017200004C0C23BF1F2C23E11F484D61CC0C53CD9
:1017300041F460E070E080EC9BE04DD880E0E9D6B9
:1017400012C0C13011F081E013C00932110519F443
:1017500081E0809364008091CC00080F0093CC005E
:1017600002C08093620080E003C0C13CE1F6BFCFBD
:10177000DF91CF911F910F91FF90EF90DF9008952F
:101780000F931F93CF93DF93D82F8B01883031F4C1
:101790008091AD00813011F488E0BEDE8D2F80791C
:1017A000803959F481E08093AC00C091AD00C11143
:1017B0000AC080917400ADD621C0803831F41092F7
:1017C000AC0080E0A6D6C0E019C0D130B1F4C09121
:1017D000AC00CC2351F08091AD008130A1F7B8016D
:1017E000DF91CF911F910F9197CE0733114058F39E
:1017F000D093CF0080E082D601C0C1E08C2FDF9172
:10180000CF911F910F9108951F920F920FB60F92D3
:1018100011242F933F938F939F93AF93BF93EF9395
:10182000FF938091F8008823E9F0E091F70024B15C
:1018300035B1F0E0EE0FFF1FDF01AD50BF4F2D932C
:101840003C93E151FF4F808191818217930708F407
:1018500001962817390708F401979183808381E066
:101860008093F90081E08093F800FF91EF91BF91A0
:10187000AF919F918F913F912F910F900FBE0F903D
:101880001F9018951F920F920FB60F9211248F93ED
:1018900081E08093D2008F910F900FBE0F901F9028
:1018A00018951F920F920FB60F9211248F9381E01B
:1018B0008093D1008F910F900FBE0F901F901895BD
:1018C000F89484B7877F84BF0FB6F894A89581B544
:1018D000886181BD11BC0FBEB89A81E083BF81EAE7
:1018E0008ABDB99A88E088BB85BB8BB780628BBF05
:1018F000A89581B5886181BD80E481BDABDB87EEB1
:1019000086B9789481E0A2D460E070E08BE094E046
:101910004AD71092B90030D684E698D4ADD481115C
:1019200008C0F89480E091E020D2853A51F1789493
:101930007BC0C0E08C2FEDD583E190E05BDD8C2F88
:101940008695E7D583E190E055DD96D4882381F034
:10195000CF5FC03479F765E181E04ED56BD5C6E93C
:101960008C2FD7D584E090E045DDC150C9F7D9CFA1
:10197000CC23B9F28C2FCDD58DE090E03BDDC1506A
:10198000F7CF0AEB10E0C1E0D1E0CE01EED1F801D3
:1019900081938F012196C331F1E0DF07B1F778948D
:1019A0008091BA008093B5008091BB0080936F0056
:1019B0008091BC0080936D008091BD0080936B008E
:1019C0008091BE00809370008091BF0080936E0074
:1019D0008091C00080936C008091C1008093B4001E
:1019E0008091C200809373008091C3008093B70000
:1019F0008091C4008093B6008091C60080936900F6
:101A00008091C700809375008091C8008093EA00A0
:101A10008091C900809376008091CA0080936A000B
:101A20008091CB008093AE008091B70081118093AC
:101A3000740061E070E081E394E0B5D643E4442EA5
:101A400052E0552E67EE862E70E4772E99249394FB
:101A5000E7E06E2ECC24C394D12CA1E3AA2EA4E0FF
:101A6000BA2EAFD38091D5009091D600009749F05F
:101A70006091D3007091D400AED61092D60010922F
:101A8000D5008091CF00882309F444C080E041D57F
:101A9000A89581B5886181BD41BC3798EDD381118E
:101AA000FDCFCAD38BB780628BBF1092F900109222
:101AB000D2001092D1008091CF008823F9F085B731
:101AC000877E806185BF85B7806285BF889585B731
:101AD0008F7D85BF8091D10081111092CF008091C0
:101AE000F900882329F0909277009092EE00BCDAFA
:101AF0008091D2008823F9F2DDDBDDCF50927700B0
:101B00008BB78F7D8BBFA6DA86B8A89581B5886123
:101B100081BD71BC66DC1092B9008091E8009091A3
:101B2000E90021E0863F9207B9F4CEE1D0E0FE0162
:101B300084918053A1DC8CE291E05CDC2196F0E0A2
:101B4000CA32DF07A1F7B092D600A092D50010925A
:101B5000D4001092D30085CF2AE08C38920779F018
:101B60003BE0803C930709F068C08091AD00813074
:101B700009F0ACC08091AC00882309F4A7C0809123
:101B8000680081116ECF81D38F73E82EF12C7DD345
:101B9000662DB8D0E60102C0CC0FDD1F9A95E2F7A2
:101BA00074D365E0AFD0F60102C0EE0FFF1F9A9527
:101BB000E2F7CE0FDF1F69D390E0BE01C3D0C80F9C
:101BC000D91FC739D10514F0C6E9D0E08C2FA1D4B4
:101BD000C70110DC8E0133E0159507953A95E1F7C2
:101BE000011101C001E010E0C70104DCC01BD10BF2
:101BF000D7FF02C0C0E0D0E08C2F8BD446D38370D7
:101C000031F4C701F7DBCE019595879582D4C230B8
:101C1000D10554F73AD36DE075D0E60102C0CC0F80
:101C2000DD1F9A95E2F731D390E0BE0177D0C80F5F
:101C3000D91F80E06ED4CE0147C0F5E080319F0708
:101C400021F48091ED0037DC0CCF25E08A32920739
:101C500031F48091EB002FDC88EE93E035C034E066
:101C6000893E9307A1F48091D0008111FACE85E9D5
:101C700050D48AE090E0BEDB80E04BD480916900D4
:101C800090E068EE73E02DD0845691091DC0895F05
:101C90009340E1F461E081E024DC60E081E021DC5C
:101CA00061E081E01EDC60E081E01BDC88EE93E017
:101CB000A1DB61E082E015DC60E081E012DC61E044
:101CC00081E00FDC80ED97E095DBCBCE85B7877E9A
:101CD00085BF85B7806285BF889585B78F7D85BFB5
:101CE000C0CE0024552704C0080E591F880F991F25
:101CF000009729F076956795B8F37105B9F7802DAF
:101D0000952F0895991B79E004C0991F961708F044
:101D1000961B881F7A95C9F780950895AA1BBB1B4F
:101D200051E107C0AA1FBB1FA617B70710F0A61BDB
:101D3000B70B881F991F5A95A9F780959095BC01FC
:101D4000CD01089597FB072E16F4009406D077FD79
:101D500008D0E4DF07FC05D03EF4909581959F4FB5
:101D60000895709561957F4F0895E199FECF9FBBCF
:101D70008EBBE09A99278DB30895262FE199FECF67
:101D80009FBB8EBBE09A01970DB2021639F01CBAC8
:101D90002DBB0FB6F894E29AE19A0FBE0895F8941D
:021DA000FFCF73
:101DA200060B18010101000401020D0105828201E6
:101DB20001820101532D07026F006D006B000001CB
:0E1DC20002010000000000000100000000000F
:00000001FF
