:1000000009C00EC00DC00CC00BC00AC009C008C09A
:1000100007C006C011241FBECFE9CDBF22D06BC0E0
:10002000EFCF26EB33E0019720F0F9013197F1F79C
:10003000FACF0895369A3699FECF85B1089582E0B9
:1000400089BD85E090E0EDDF19BC88EC90E0E9CF58
:100050008AE089BD88EC90E0E4DF19BC80E991E09A
:10006000E0CF82E087BB81E28FBD81E083BF81E684
:1000700087B9A29A86EC86B9479A8FEF89BD85E049
:1000800090E0CFDF19BCD6DF19BC18E0C0E0D0E0AB
:10009000D1DFC80FD11D82E390E0C3DF1150C1F75B
:1000A00083E0D695C7958A95E1F7C436D10520F04F
:1000B000C456D109CDDFF9CF88EE93E0B2DFCA3064
:1000C000D10510F4BCDF05C02A97C2DFCA30D105C4
:1000D000D8F788EE93E0A5DF209711F4B0DF04C0D5
:1000E0002197B6DF2097E1F788EE93E09ADF88EB5F
:0A00F0009BE097DFC9CFF894FFCF23
:00000001FF
