:1000000009C00EC00DC00CC00BC00AC009C008C09A
:1000100007C006C011241FBECFE9CDBF27D079C0CD
:10002000EFCF26EB33E0019720F0F9013197F1F79C
:10003000FACF089588EE93E0F4CF369A3699FECF42
:10004000349A84B195B1089582E089BD85E090E04D
:10005000E8DF19BC88EC90E0E4CF8AE089BD88EC49
:1000600090E0DFDF19BC80E991E0DBCF82E087BB65
:1000700081E28FBD81E083BF8FE487B986EC86B9CA
:10008000479A8FEF89BD85E090E0CBDF19BCD2DFC6
:10009000D4DF02E019BC18E0C0E0D0E0CEDFC80F2A
:1000A000D91F09BD89E190E0BCDF19BC89E190E06E
:1000B000B8DF115099F783E0D695C7958A95E1F797
:1000C000B9DFC83E83E0D80720F0C85ED340C5DF63
:1000D000F8CFB0DFC436D10520F0C456D109BDDF5A
:1000E000F9CFA8DFCA30D10510F4AEDF05C02A97DA
:1000F000B4DFCA30D105D8F79DDF209711F4A4DF13
:1001000004C02197AADF2097E1F794DF93DF92DF05
:06011000C1CFF894FFCFFF
:00000001FF
