:100000001EC036C035C034C033C032C031C030C06D
:100010002FC02EC065456A466F47744878497D6099
:10002000826187628B639064956599669E67A36819
:10003000A869AC80B181B682BB83BF84FF21112443
:100040001FBECFE9CDBF10E0A0E6B0E0E0E3F3E0F3
:1000500002C005900D92A037B107D9F720E0A0E7C4
:10006000B0E001C01D92A137B207E1F72FD05EC109
:10007000C7CF2AE733E0019720F0F9013197F1F774
:10008000FACF0895369A3699FECF85B10895EF924A
:10009000FF920F931F93CF93DF93C82F8B017B01A8
:1000A000EE0CFF1CEE0CFF1CD7E2CC2341F0D9BDB7
:1000B000C801DFDF19BCC701DCDFC150F6CFDF911B
:1000C000CF911F910F91FF90EF90089582E087BB31
:1000D000A29A81E687B986EC86B9479A85B7877E6A
:1000E00085BF80917200882329F0109271001092D0
:1000F000700013C080917100809370008091700037
:100100008F5F80937000809170008F3010F010929C
:100110007000809170008093710010927200E091E5
:100120007000F0E0E05AFF4F80818A3010F481E2E5
:1001300001C083E28FBD81E083BFE0917000F0E0F9
:10014000E05AFF4F808189BDD0E0FF24FA940CEF84
:1001500010E034E6E32E42E4D42E80917000853026
:1001600040F485B7806285BF889585B78F7D85BF50
:10017000B1C080917000863070F519BC83DF88ECC7
:1001800090E077DF7FDF90E0292F30E0F901EC5E2F
:10019000FF4FE491E81710F49E5FF6CFF901EB5E94
:1001A000FF4FC4916EE370E08C2F82958695877027
:1001B0006EDF84EF91E05DDF65E070E081E067DF96
:1001C0008EEE92E056DF6EE370E08C2F8F715FDF72
:1001D00080ED97E07EC080917000873080F4F9BC9C
:1001E00081E090E046DF19BC89EF90E042DFF9BC86
:1001F00081E090E03EDF19BC8DEE92E06AC0809114
:1002000070008A30C8F4F9BCE0917000F0E0E05A68
:10021000FF4F8081823320F4C8010197F1F703C0BA
:1002200081E090E026DF19BCE0917000F0E0E05A38
:10023000FF4F808190E04DC0809170008A30A9F41A
:10024000C0E0F9BC81E090E014DF19BCC13218F0C5
:100250008D2D8C1B01C08C2F90E04B96880F991F21
:1002600008DFCF5FC23469F735C0809170008B30F2
:1002700099F4C0E0F9BCC8010197F1F719BCC23389
:1002800018F08E2D8C1B01C08C2F90E00996F1DEAA
:10029000CF5FC43679F71EC0809170008F30D0F4E4
:1002A000C4E0E0917000F0E0E35AFF4F808189BD27
:1002B00085E090E0DEDEE0917000F0E0E05AFF4F74
:1002C000808189BD81E490E0D4DEC15051F780ED9A
:1002D00092E0CFDE349B41CFD5DE90E020917000DC
:1002E000222319F02DE730E002C02FE630E082171C
:1002F0009307CCF4DF5FD330B8F08091700088238F
:1003000019F0109270000CC019BC85B7877E80610F
:1003100085BF85B7806285BF889585B78F7D85BF8E
:1003200088EE93E0A6DED0E0369A17CFF894FFCFA0
:10033000040E2778FF27FF52290FFFFF040E270026
:00000001FF
