:100000003DC04AC049C048C047C046C045C044C0C2
:1000100043C042C00107203F6B7FFF010203050779
:10002000F8FAFE01020305070000000705030201BC
:10003000000000020407F8FAFEF6000204070000C0
:10004000000000070402000000000001020306F89F
:10005000FAFEF6010203060000000006030201009A
:1000600000000002030507000000000704F800007C
:1000700000000007007D95A3ACB6FF0011241FBE51
:10008000CFE9CDBF20E0A0E6B0E001C01D92AE36C2
:10009000B207E1F785D0ACC1B3CF28ED3EE0815087
:1000A00020F0F9013197F1F7FACF08958AEFF5CFF3
:1000B000CF93C091690081E08C0F8F7180936900AC
:1000C00060916A0090E087D16FEF8C2F90E0CF9124
:1000D00082C1EEDF60916D008FE390E07CD1609192
:1000E0006C008EE390E077D160916B008DE390E03F
:1000F00072C191E29FBD811102C019BC0895833085
:1001000010F093E29FBDE82FF0E0ED5EFF4FE49129
:10011000E9BD08951F93CF93DF93C82FD62F11E227
:10012000CC2361F083E0E5DF8D2FB7DF1FBD19BC65
:100130008D2FB3DF8D2FB1DFC150F2CFDF91CF9183
:100140001F9108951F93CF93DF93EC01862F6EE2EA
:10015000E1DF888111E081278883BBDF63E080E2F3
:10016000D9DF888118271883B4DFDF91CF911F91E1
:100170009DCF0F931F93CF93DF93082FD62FC8E007
:1001800011E287E0B6DF802F88DF1FBD19BC8D2FFD
:1001900084DFC150B1F7DF91CF911F910F91089586
:1001A000B99A81E083BF10926900C0916900C032A2
:1001B000F0F48C2F90E008D18F3FA9F080936A0073
:1001C0008FE390E001D1C82F80936D008EE390E023
:1001D000FBD080936C008DE390E0F6D080936B00B1
:1001E000CC3060F004C0CF5FC0936900DECF1092C6
:1001F0006A0010926D0010926B006BDFE0916D0051
:10020000F0E023E0EE0FFF1F2A95E1F7E55EFF4FD8
:10021000A0E6B0E080E09491992331F094919D9311
:100220008F5F31968830B9F78093680090916B00AA
:1002300091111AC090916E00911110C090916F00B1
:100240009F5F9F7190936F0090916A009F5F909362
:100250006A00981748F010926A0006C010926F006A
:1002600080916C008823B9F310926E0021DFA29A6E
:1002700081E687B986EC86B9369AC0916A00EC2F80
:10028000F0E0E05AFF4FD08180916B00882319F095
:1002900010926F0001C0CD2F10E08DEFF82E91E28B
:1002A000E92E80916F008A30B8F000DF10926F0065
:1002B000F0926A0061E08BE690E044DF10926A0001
:1002C00062E08CE690E03EDFE0916A00F0E0E05A08
:1002D000FF4FC081DC2F50C0C83F39F46AE085E091
:1002E00048DF64E18AE045DF47C0CA3F61F404E0CB
:1002F00087E0FFDE83E0D1DE84E0FBDE8FE0CDDE51
:100300000150B1F70EC0C63F71F462E383E002DF33
:100310008AEFC3DE6DE783E0FDDE62E383E0FADEB1
:10032000C5DEC4DE29C0CE3F81F4369A3699FECFB1
:1003300095B180E0E82FF0E0EB58FF4FE491E9172A
:1003400010F48F5FF7CF6EE2EACFCD3F89F41092C1
:100350006A0010926B0000E000936D00BADE0F5F40
:100360006EE2802FD7DEA2DEA1DE0C30A9F7D9CF56
:100370008D2FBFDE8DE791DE10926F00349B91CF01
:1003800085B18D37F0F41F5F1830E0F0D830A0F45D
:10039000D23018F0CFEFCD0F10C0EFBC19BC85B72D
:1003A000877E806185BF85B7806285BF889585B768
:1003B0008F7D85BFCD2F01C0C3E08C2F9ADE76DE06
:1003C000DC2F10E0369A6DCFE199FECF8EBBE09A1C
:1003D00099278DB30895262FE199FECF1CBA8EBBC5
:1003E0002DBB0FB6F894E29AE19A0FBE01960895DC
:0403F000F894FFCFAF
:00000001FF
