:100000002EC046C045C044C043C042C041C040C0ED
:100010003FC03EC0040404040405050505060607A8
:100020000708090A0B0C0D0E1011131517191B1DCB
:10003000202225282B2F32363A3E42474B50565B22
:1000400061676D737A81888F979FA7B0B8C2CBD54F
:10005000DFE9F4FF7D8B959EA3A8ACB1B6FF112418
:100060001FBECFE9CDBF10E0A0E6B0E0E2EDF4E0C6
:1000700002C005900D92AC36B107D9F720E0ACE68E
:10008000B0E001C01D92A037B207E1F79AD01FC2BD
:10009000B7CF28ED3EE0815020F0F9013197F1F71C
:1000A000FACF08958AEFF5CF369A3699FECF85B10B
:1000B000089580936C0091E29FBD811102C019BC2C
:1000C0000895E82FF0E0ED5EFF4FE491E9BD08955B
:1000D000CF93DF93C82FD62FCC2361F080E1E9DFE7
:1000E0008D2FD7DF80E0E5DF8D2FD3DF8D2FD1DFA0
:1000F000C150F2CFDF91CF91089580E0DADF3798D9
:1001000085B7877E806185BF85B7806285BF88950A
:1001100085B78F7D85BF089580916F008823F1F0AA
:1001200080916E006FEF90E0C5D180916E008F5F7F
:1001300080936E006FEF90E0BDD180916E008F5F75
:100140008F7180936E006091730090E0B3D18091C5
:100150006E0090E0609172000196ACC10895DF924C
:10016000EF92FF920F931F93CF93DF93D82FD62E4A
:10017000C0E28CEFE82EF12C06EB13E080E499DF6F
:10018000DD2341F08D2F90E0019738F0F801319791
:10019000F1F7FACFC7010197F1F780E08ADF8D2DE3
:1001A00090E0019720F0F8013197F1F7FACFC150B4
:1001B00029F7DF91CF911F910F91FF90EF90DF9082
:1001C0000895B99A81E083BF81E290E06CD18230DA
:1001D00018F480936F0002C010926F0010926E00AE
:1001E000C0916E00C032A0F40C2F10E0C8015BD1AA
:1001F0008F3F51F080936D00C801019654D18F3F1D
:1002000039F08093600004C0CE5FC0936E00E8CFE9
:100210008091740081111CC0809175008F5F8F7177
:1002200080937500809170008F3F31F08093730050
:100230008FEF809370000AC0809173008F5F80936E
:1002400073008A3018F081E080937300E12C12C0B3
:100250001092750081E080937200809371008FEF9F
:10026000809370001092730080916F00882371F367
:100270009AEFE92E109274004FDFA29A81E687B9B7
:1002800086EC86B9D1E0F12C11E080E1C82EDD24A6
:10029000DA94C0917300CA3028F4EC2FF0E0EF59E3
:1002A000FF4FC08100917500003138F1FBDE1092E4
:1002B000750010937300D09270006FE081E008DF4A
:1002C0008EE3E7DE80916F00812780936F0024DF4B
:1002D00060916F0081E290E0EDD063E080E2F8DEB3
:1002E00080916F00812780936F0016DF60916F000F
:1002F00081E290E0DFD0D6DECCCF8AEFE81211C0E9
:1003000081E0D7DE1093700083E5C3DE80916D003D
:10031000809373008091600080937200FDDEE12C79
:10032000B8CFCD3F81F580917200C3DE013011F46A
:10033000D092710083E5ADDED0927000013011F4EF
:10034000009371001092750000917200802FB1DE51
:100350008BE09FDED09171001D161CF4003428F054
:1003600008C0DD2311F0023050F0D00FD09372009E
:10037000EBCFD13021F480E09CDE82E08ADED195A3
:10038000D09371006CC0CC3F51F4DD2319F0809103
:1003900072008FDE83E57DDE1092700060C0CE3F7C
:1003A00049F4DD2311F080E484DE83E572DE1093EE
:1003B000700055C0C73F61F4D4E080E47ADE82E08B
:1003C00068DE80E276DE8FE064DED150B1F735C0C2
:1003D000C13F89F480E46DDE81E05BDE80E069DEB0
:1003E0008EE357DE80E465DE81E053DE80E061DE8F
:1003F0008BEB4FDE34C0C03F19F46FE481E004C0E2
:10040000CF3E21F469E280E0AADE29C0CE3E11F49D
:100410006FE0F9CFCB3F99F483E53BDE45DE982FC3
:1004200080E0E82FF0E0EC5AFF4FE491E91710F478
:100430008F5FF7CF6FE14CDE35DE34DE10C0CB3E90
:1004400071F467E082E044DEDAE08D2F32DE0EE9FF
:1004500029DE28DE0150E1F7D150B9F74EDE1092C7
:10046000750022DE8D37E0F4F39487E08F1510F0ED
:10047000D0E00FCFCC3F29F010937300C0927200F0
:100480000BC080917200823030F080916C008695B4
:100490008093720001C031DE809172000ADE02DEBC
:1004A000D0E0F12CF6CEE199FECF8EBBE09A9927F1
:1004B0008DB30895262FE199FECF1CBA8EBB2DBBBC
:1004C0000FB6F894E29AE19A0FBE01960895F89457
:0204D000FFCF5C
:0C04D20001FDFCFEFBEBF7F1F0EFEE008B
:00000001FF
